{
  "contractName": "MarketplaceStiki",
  "abi": [
    {
      "inputs": [
        {
          "internalType": "address",
          "name": "_NftContract",
          "type": "address"
        }
      ],
      "stateMutability": "nonpayable",
      "type": "constructor"
    },
    {
      "anonymous": false,
      "inputs": [
        {
          "indexed": true,
          "internalType": "address",
          "name": "previousOwner",
          "type": "address"
        },
        {
          "indexed": true,
          "internalType": "address",
          "name": "newOwner",
          "type": "address"
        }
      ],
      "name": "OwnershipTransferred",
      "type": "event"
    },
    {
      "inputs": [
        {
          "internalType": "uint256",
          "name": "",
          "type": "uint256"
        }
      ],
      "name": "offersBuy",
      "outputs": [
        {
          "internalType": "address payable",
          "name": "Buyer",
          "type": "address"
        },
        {
          "internalType": "uint256",
          "name": "price",
          "type": "uint256"
        },
        {
          "internalType": "uint256",
          "name": "index",
          "type": "uint256"
        },
        {
          "internalType": "uint256",
          "name": "tokenId",
          "type": "uint256"
        },
        {
          "internalType": "bool",
          "name": "active",
          "type": "bool"
        }
      ],
      "stateMutability": "view",
      "type": "function",
      "constant": true
    },
    {
      "inputs": [],
      "name": "offersSell",
      "outputs": [
        {
          "internalType": "address payable",
          "name": "Seller",
          "type": "address"
        },
        {
          "internalType": "uint256",
          "name": "price",
          "type": "uint256"
        },
        {
          "internalType": "uint256",
          "name": "tokenId",
          "type": "uint256"
        }
      ],
      "stateMutability": "view",
      "type": "function",
      "constant": true
    },
    {
      "inputs": [],
      "name": "owner",
      "outputs": [
        {
          "internalType": "address",
          "name": "",
          "type": "address"
        }
      ],
      "stateMutability": "view",
      "type": "function",
      "constant": true
    },
    {
      "inputs": [],
      "name": "renounceOwnership",
      "outputs": [],
      "stateMutability": "nonpayable",
      "type": "function"
    },
    {
      "inputs": [
        {
          "internalType": "address",
          "name": "newOwner",
          "type": "address"
        }
      ],
      "name": "transferOwnership",
      "outputs": [],
      "stateMutability": "nonpayable",
      "type": "function"
    },
    {
      "inputs": [
        {
          "internalType": "address",
          "name": "_contract",
          "type": "address"
        }
      ],
      "name": "setNewStikiContract",
      "outputs": [],
      "stateMutability": "nonpayable",
      "type": "function"
    },
    {
      "inputs": [
        {
          "internalType": "address",
          "name": "_user",
          "type": "address"
        }
      ],
      "name": "viewUserListSell",
      "outputs": [
        {
          "internalType": "uint256[]",
          "name": "",
          "type": "uint256[]"
        }
      ],
      "stateMutability": "view",
      "type": "function",
      "constant": true
    },
    {
      "inputs": [
        {
          "internalType": "uint256",
          "name": "_tokenId",
          "type": "uint256"
        },
        {
          "internalType": "uint256",
          "name": "_price",
          "type": "uint256"
        }
      ],
      "name": "putSell",
      "outputs": [],
      "stateMutability": "nonpayable",
      "type": "function"
    },
    {
      "inputs": [
        {
          "internalType": "address",
          "name": "_user",
          "type": "address"
        },
        {
          "internalType": "uint256",
          "name": "_tokenId",
          "type": "uint256"
        }
      ],
      "name": "viewUserListSellIndex",
      "outputs": [
        {
          "internalType": "uint256",
          "name": "i",
          "type": "uint256"
        }
      ],
      "stateMutability": "view",
      "type": "function",
      "constant": true
    },
    {
      "inputs": [
        {
          "internalType": "uint256",
          "name": "_tokenId",
          "type": "uint256"
        }
      ],
      "name": "removePutSell",
      "outputs": [],
      "stateMutability": "nonpayable",
      "type": "function"
    },
    {
      "inputs": [
        {
          "internalType": "uint256",
          "name": "_tokenId",
          "type": "uint256"
        }
      ],
      "name": "viewPuttSell",
      "outputs": [
        {
          "components": [
            {
              "internalType": "address payable",
              "name": "Seller",
              "type": "address"
            },
            {
              "internalType": "uint256",
              "name": "price",
              "type": "uint256"
            },
            {
              "internalType": "uint256",
              "name": "tokenId",
              "type": "uint256"
            }
          ],
          "internalType": "struct MarketplaceStiki.OfferSeller",
          "name": "",
          "type": "tuple"
        }
      ],
      "stateMutability": "view",
      "type": "function",
      "constant": true
    },
    {
      "inputs": [
        {
          "internalType": "uint256",
          "name": "_tokenId",
          "type": "uint256"
        }
      ],
      "name": "fillPutSell",
      "outputs": [],
      "stateMutability": "payable",
      "type": "function",
      "payable": true
    },
    {
      "inputs": [
        {
          "internalType": "address",
          "name": "_owner",
          "type": "address"
        }
      ],
      "name": "viewBalance",
      "outputs": [
        {
          "internalType": "uint256",
          "name": "",
          "type": "uint256"
        }
      ],
      "stateMutability": "view",
      "type": "function",
      "constant": true
    },
    {
      "inputs": [],
      "name": "widrowProfitSell",
      "outputs": [],
      "stateMutability": "nonpayable",
      "type": "function"
    },
    {
      "inputs": [
        {
          "internalType": "uint256",
          "name": "_price",
          "type": "uint256"
        },
        {
          "internalType": "uint256",
          "name": "_tokenId",
          "type": "uint256"
        }
      ],
      "name": "putBuyOffer",
      "outputs": [],
      "stateMutability": "payable",
      "type": "function",
      "payable": true
    },
    {
      "inputs": [
        {
          "internalType": "uint256",
          "name": "_tokenId",
          "type": "uint256"
        },
        {
          "internalType": "uint256",
          "name": "_index",
          "type": "uint256"
        }
      ],
      "name": "deactiveBuyOffer",
      "outputs": [],
      "stateMutability": "nonpayable",
      "type": "function"
    },
    {
      "inputs": [
        {
          "internalType": "uint256",
          "name": "_tokenId",
          "type": "uint256"
        },
        {
          "internalType": "uint256",
          "name": "_index",
          "type": "uint256"
        }
      ],
      "name": "reactiveBuyOffer",
      "outputs": [],
      "stateMutability": "nonpayable",
      "type": "function"
    },
    {
      "inputs": [
        {
          "internalType": "uint256",
          "name": "_tokenId",
          "type": "uint256"
        },
        {
          "internalType": "uint256",
          "name": "_index",
          "type": "uint256"
        }
      ],
      "name": "deletOfferBuyer",
      "outputs": [],
      "stateMutability": "nonpayable",
      "type": "function"
    },
    {
      "inputs": [
        {
          "internalType": "uint256",
          "name": "_tokenId",
          "type": "uint256"
        },
        {
          "internalType": "uint256",
          "name": "_index",
          "type": "uint256"
        }
      ],
      "name": "fillBuyerOffer",
      "outputs": [],
      "stateMutability": "nonpayable",
      "type": "function"
    },
    {
      "inputs": [
        {
          "internalType": "uint256",
          "name": "_tokenId",
          "type": "uint256"
        }
      ],
      "name": "widrowlNftBuy",
      "outputs": [],
      "stateMutability": "nonpayable",
      "type": "function"
    },
    {
      "inputs": [
        {
          "internalType": "uint256",
          "name": "_tokenId",
          "type": "uint256"
        }
      ],
      "name": "viewBuyOfferForToken",
      "outputs": [
        {
          "components": [
            {
              "internalType": "address payable",
              "name": "Buyer",
              "type": "address"
            },
            {
              "internalType": "uint256",
              "name": "price",
              "type": "uint256"
            },
            {
              "internalType": "uint256",
              "name": "index",
              "type": "uint256"
            },
            {
              "internalType": "uint256",
              "name": "tokenId",
              "type": "uint256"
            },
            {
              "internalType": "bool",
              "name": "active",
              "type": "bool"
            }
          ],
          "internalType": "struct MarketplaceStiki.OfferBuy[]",
          "name": "",
          "type": "tuple[]"
        }
      ],
      "stateMutability": "view",
      "type": "function",
      "constant": true
    }
  ],
  "bytecode": "0x60806040523480156200001157600080fd5b50604051620044783803806200447883398181016040528101906200003791906200023d565b620000576200004b6200015a60201b60201c565b6200016260201b60201c565b60018081905550600073ffffffffffffffffffffffffffffffffffffffff168173ffffffffffffffffffffffffffffffffffffffff161415620000d1576040517f08c379a0000000000000000000000000000000000000000000000000000000008152600401620000c89062000296565b60405180910390fd5b80600260006101000a81548173ffffffffffffffffffffffffffffffffffffffff021916908373ffffffffffffffffffffffffffffffffffffffff16021790555080600360006101000a81548173ffffffffffffffffffffffffffffffffffffffff021916908373ffffffffffffffffffffffffffffffffffffffff1602179055505062000345565b600033905090565b60008060009054906101000a900473ffffffffffffffffffffffffffffffffffffffff169050816000806101000a81548173ffffffffffffffffffffffffffffffffffffffff021916908373ffffffffffffffffffffffffffffffffffffffff1602179055508173ffffffffffffffffffffffffffffffffffffffff168173ffffffffffffffffffffffffffffffffffffffff167f8be0079c531659141344cd1fd0a4f28419497f9722a3daafe3b4186f6b6457e060405160405180910390a35050565b60008151905062000237816200032b565b92915050565b600060208284031215620002565762000255620002fd565b5b6000620002668482850162000226565b91505092915050565b60006200027e601383620002b8565b91506200028b8262000302565b602082019050919050565b60006020820190508181036000830152620002b1816200026f565b9050919050565b600082825260208201905092915050565b6000620002d682620002dd565b9050919050565b600073ffffffffffffffffffffffffffffffffffffffff82169050919050565b600080fd5b7f53657420636f7272656374204164647265737300000000000000000000000000600082015250565b6200033681620002c9565b81146200034257600080fd5b50565b61412380620003556000396000f3fe60806040526004361061012a5760003560e01c8063971d5652116100ab578063c1a13d1a1161006f578063c1a13d1a146103d3578063c45e91e214610410578063d161b87e14610439578063ddea20ea14610455578063f2fde38b1461047e578063f94d11c1146104a75761012a565b8063971d5652146102da5780639ca18e8614610317578063a71b006414610354578063ad717b691461037d578063b60b2333146103aa5761012a565b80636ad0e584116100f25780636ad0e5841461022f578063715018a61461025857806378ba062c1461026f5780638cc80203146102865780638da5cb5b146102af5761012a565b806313c36cbe1461012f5780633443a9c714610158578063408bf38a146101995780635b5f872f146101b55780635f66791c146101f2575b600080fd5b34801561013b57600080fd5b50610156600480360381019061015191906130ab565b6104d0565b005b34801561016457600080fd5b5061017f600480360381019061017a91906130ab565b610532565b6040516101909594939291906136c6565b60405180910390f35b6101b360048036038101906101ae91906130ab565b6105a5565b005b3480156101c157600080fd5b506101dc60048036038101906101d79190613011565b610cdb565b6040516101e99190613772565b60405180910390f35b3480156101fe57600080fd5b50610219600480360381019061021491906130ab565b610d72565b6040516102269190613a34565b60405180910390f35b34801561023b57600080fd5b50610256600480360381019061025191906130ab565b610e09565b005b34801561026457600080fd5b5061026d610e16565b005b34801561027b57600080fd5b50610284610e9e565b005b34801561029257600080fd5b506102ad60048036038101906102a891906130d8565b611040565b005b3480156102bb57600080fd5b506102c46111e1565b6040516102d1919061363d565b60405180910390f35b3480156102e657600080fd5b5061030160048036038101906102fc919061306b565b61120a565b60405161030e9190613a4f565b60405180910390f35b34801561032357600080fd5b5061033e600480360381019061033991906130ab565b6112d9565b60405161034b9190613750565b60405180910390f35b34801561036057600080fd5b5061037b600480360381019061037691906130d8565b6113da565b005b34801561038957600080fd5b5061039261157b565b6040516103a19392919061368f565b60405180910390f35b3480156103b657600080fd5b506103d160048036038101906103cc91906130d8565b6115b3565b005b3480156103df57600080fd5b506103fa60048036038101906103f59190613011565b6115c2565b6040516104079190613a4f565b60405180910390f35b34801561041c57600080fd5b50610437600480360381019061043291906130d8565b61160b565b005b610453600480360381019061044e91906130d8565b61166f565b005b34801561046157600080fd5b5061047c600480360381019061047791906130d8565b611835565b005b34801561048a57600080fd5b506104a560048036038101906104a09190613011565b611899565b005b3480156104b357600080fd5b506104ce60048036038101906104c99190613011565b611991565b005b60026001541415610516576040517f08c379a000000000000000000000000000000000000000000000000000000000815260040161050d906139b4565b60405180910390fd5b60026001819055506105283382611b57565b6001808190555050565b6004818154811061054257600080fd5b90600052602060002090600502016000915090508060000160009054906101000a900473ffffffffffffffffffffffffffffffffffffffff16908060010154908060020154908060030154908060040160009054906101000a900460ff16905085565b600260015414156105eb576040517f08c379a00000000000000000000000000000000000000000000000000000000081526004016105e2906139b4565b60405180910390fd5b600260018190555060011515600a60006009600085815260200190815260200160002060000160009054906101000a900473ffffffffffffffffffffffffffffffffffffffff1673ffffffffffffffffffffffffffffffffffffffff1673ffffffffffffffffffffffffffffffffffffffff168152602001908152602001600020600083815260200190815260200160002060009054906101000a900460ff161515146106cd576040517f08c379a00000000000000000000000000000000000000000000000000000000081526004016106c4906139f4565b60405180910390fd5b60096000828152602001908152602001600020600101543414610725576040517f08c379a000000000000000000000000000000000000000000000000000000000815260040161071c906139d4565b60405180910390fd5b34600c60006009600085815260200190815260200160002060000160009054906101000a900473ffffffffffffffffffffffffffffffffffffffff1673ffffffffffffffffffffffffffffffffffffffff1673ffffffffffffffffffffffffffffffffffffffff16815260200190815260200160002060008282546107aa9190613af8565b925050819055506000600a60006009600085815260200190815260200160002060000160009054906101000a900473ffffffffffffffffffffffffffffffffffffffff1673ffffffffffffffffffffffffffffffffffffffff1673ffffffffffffffffffffffffffffffffffffffff168152602001908152602001600020600083815260200190815260200160002060006101000a81548160ff02191690831515021790555060006108926009600084815260200190815260200160002060000160009054906101000a900473ffffffffffffffffffffffffffffffffffffffff168361120a565b9050600b60006009600085815260200190815260200160002060000160009054906101000a900473ffffffffffffffffffffffffffffffffffffffff1673ffffffffffffffffffffffffffffffffffffffff1673ffffffffffffffffffffffffffffffffffffffff1681526020019081526020016000206001600b60006009600087815260200190815260200160002060000160009054906101000a900473ffffffffffffffffffffffffffffffffffffffff1673ffffffffffffffffffffffffffffffffffffffff1673ffffffffffffffffffffffffffffffffffffffff1681526020019081526020016000208054905061098e9190613b4e565b8154811061099f5761099e613cb9565b5b9060005260206000200154600b60006009600086815260200190815260200160002060000160009054906101000a900473ffffffffffffffffffffffffffffffffffffffff1673ffffffffffffffffffffffffffffffffffffffff1673ffffffffffffffffffffffffffffffffffffffff1681526020019081526020016000208281548110610a3157610a30613cb9565b5b9060005260206000200181905550600b60006009600085815260200190815260200160002060000160009054906101000a900473ffffffffffffffffffffffffffffffffffffffff1673ffffffffffffffffffffffffffffffffffffffff1673ffffffffffffffffffffffffffffffffffffffff168152602001908152602001600020805480610ac457610ac3613c8a565b5b6001900381819060005260206000200160009055905560096000838152602001908152602001600020600080820160006101000a81549073ffffffffffffffffffffffffffffffffffffffff0219169055600182016000905560028201600090555050600260009054906101000a900473ffffffffffffffffffffffffffffffffffffffff1673ffffffffffffffffffffffffffffffffffffffff166323b872dd3033856040518463ffffffff1660e01b8152600401610b8693929190613719565b600060405180830381600087803b158015610ba057600080fd5b505af1158015610bb4573d6000803e3d6000fd5b505050503373ffffffffffffffffffffffffffffffffffffffff16600260009054906101000a900473ffffffffffffffffffffffffffffffffffffffff1673ffffffffffffffffffffffffffffffffffffffff16636352211e846040518263ffffffff1660e01b8152600401610c2a9190613a4f565b60206040518083038186803b158015610c4257600080fd5b505afa158015610c56573d6000803e3d6000fd5b505050506040513d601f19601f82011682018060405250810190610c7a919061303e565b73ffffffffffffffffffffffffffffffffffffffff1614610cd0576040517f08c379a0000000000000000000000000000000000000000000000000000000008152600401610cc790613934565b60405180910390fd5b506001808190555050565b6060600b60008373ffffffffffffffffffffffffffffffffffffffff1673ffffffffffffffffffffffffffffffffffffffff168152602001908152602001600020805480602002602001604051908101604052809291908181526020018280548015610d6657602002820191906000526020600020905b815481526020019060010190808311610d52575b50505050509050919050565b610d7a612f9b565b600960008381526020019081526020016000206040518060600160405290816000820160009054906101000a900473ffffffffffffffffffffffffffffffffffffffff1673ffffffffffffffffffffffffffffffffffffffff1673ffffffffffffffffffffffffffffffffffffffff168152602001600182015481526020016002820154815250509050919050565b610e133382611cf1565b50565b610e1e61205d565b73ffffffffffffffffffffffffffffffffffffffff16610e3c6111e1565b73ffffffffffffffffffffffffffffffffffffffff1614610e92576040517f08c379a0000000000000000000000000000000000000000000000000000000008152600401610e8990613914565b60405180910390fd5b610e9c6000612065565b565b60026001541415610ee4576040517f08c379a0000000000000000000000000000000000000000000000000000000008152600401610edb906139b4565b60405180910390fd5b6002600181905550610ef5336115c2565b471015610f37576040517f08c379a0000000000000000000000000000000000000000000000000000000008152600401610f2e906138b4565b60405180910390fd5b6000610f42336115c2565b90506000600c60003373ffffffffffffffffffffffffffffffffffffffff1673ffffffffffffffffffffffffffffffffffffffff1681526020019081526020016000208190555060003373ffffffffffffffffffffffffffffffffffffffff1682604051610faf90613628565b60006040518083038185875af1925050503d8060008114610fec576040519150601f19603f3d011682016040523d82523d6000602084013e610ff1565b606091505b5050905080611035576040517f08c379a000000000000000000000000000000000000000000000000000000000815260040161102c90613874565b60405180910390fd5b505060018081905550565b3373ffffffffffffffffffffffffffffffffffffffff1660056000848152602001908152602001600020828154811061107c5761107b613cb9565b5b906000526020600020906005020160000160009054906101000a900473ffffffffffffffffffffffffffffffffffffffff1673ffffffffffffffffffffffffffffffffffffffff1614611104576040517f08c379a00000000000000000000000000000000000000000000000000000000081526004016110fb906138f4565b60405180910390fd5b6000151560056000848152602001908152602001600020828154811061112d5761112c613cb9565b5b906000526020600020906005020160040160009054906101000a900460ff1615151461118e576040517f08c379a000000000000000000000000000000000000000000000000000000000815260040161118590613814565b60405180910390fd5b60016005600084815260200190815260200160002082815481106111b5576111b4613cb9565b5b906000526020600020906005020160040160006101000a81548160ff0219169083151502179055505050565b60008060009054906101000a900473ffffffffffffffffffffffffffffffffffffffff16905090565b60005b600b60008473ffffffffffffffffffffffffffffffffffffffff1673ffffffffffffffffffffffffffffffffffffffff168152602001908152602001600020805490508110156112d25781600b60008573ffffffffffffffffffffffffffffffffffffffff1673ffffffffffffffffffffffffffffffffffffffff16815260200190815260200160002082815481106112a9576112a8613cb9565b5b906000526020600020015414156112bf576112d3565b80806112ca90613c12565b91505061120d565b5b92915050565b606060056000838152602001908152602001600020805480602002602001604051908101604052809291908181526020016000905b828210156113cf57838290600052602060002090600502016040518060a00160405290816000820160009054906101000a900473ffffffffffffffffffffffffffffffffffffffff1673ffffffffffffffffffffffffffffffffffffffff1673ffffffffffffffffffffffffffffffffffffffff1681526020016001820154815260200160028201548152602001600382015481526020016004820160009054906101000a900460ff1615151515815250508152602001906001019061130e565b505050509050919050565b3373ffffffffffffffffffffffffffffffffffffffff1660056000848152602001908152602001600020828154811061141657611415613cb9565b5b906000526020600020906005020160000160009054906101000a900473ffffffffffffffffffffffffffffffffffffffff1673ffffffffffffffffffffffffffffffffffffffff161461149e576040517f08c379a0000000000000000000000000000000000000000000000000000000008152600401611495906138f4565b60405180910390fd5b600115156005600084815260200190815260200160002082815481106114c7576114c6613cb9565b5b906000526020600020906005020160040160009054906101000a900460ff16151514611528576040517f08c379a000000000000000000000000000000000000000000000000000000000815260040161151f90613994565b60405180910390fd5b600060056000848152602001908152602001600020828154811061154f5761154e613cb9565b5b906000526020600020906005020160040160006101000a81548160ff0219169083151502179055505050565b60068060000160009054906101000a900473ffffffffffffffffffffffffffffffffffffffff16908060010154908060020154905083565b6115be338383612129565b5050565b6000600c60008373ffffffffffffffffffffffffffffffffffffffff1673ffffffffffffffffffffffffffffffffffffffff168152602001908152602001600020549050919050565b60026001541415611651576040517f08c379a0000000000000000000000000000000000000000000000000000000008152600401611648906139b4565b60405180910390fd5b60026001819055506116643383836126da565b600180819055505050565b3373ffffffffffffffffffffffffffffffffffffffff16600260009054906101000a900473ffffffffffffffffffffffffffffffffffffffff1673ffffffffffffffffffffffffffffffffffffffff16636352211e836040518263ffffffff1660e01b81526004016116e19190613a4f565b60206040518083038186803b1580156116f957600080fd5b505afa15801561170d573d6000803e3d6000fd5b505050506040513d601f19601f82011682018060405250810190611731919061303e565b73ffffffffffffffffffffffffffffffffffffffff161415611788576040517f08c379a000000000000000000000000000000000000000000000000000000000815260040161177f90613794565b60405180910390fd5b8134146117ca576040517f08c379a00000000000000000000000000000000000000000000000000000000081526004016117c190613854565b60405180910390fd5b34600d60003373ffffffffffffffffffffffffffffffffffffffff1673ffffffffffffffffffffffffffffffffffffffff16815260200190815260200160002060008282546118199190613af8565b925050819055506000339050611830818334612aae565b505050565b6002600154141561187b576040517f08c379a0000000000000000000000000000000000000000000000000000000008152600401611872906139b4565b60405180910390fd5b600260018190555061188e338383612bd8565b600180819055505050565b6118a161205d565b73ffffffffffffffffffffffffffffffffffffffff166118bf6111e1565b73ffffffffffffffffffffffffffffffffffffffff1614611915576040517f08c379a000000000000000000000000000000000000000000000000000000000815260040161190c90613914565b60405180910390fd5b600073ffffffffffffffffffffffffffffffffffffffff168173ffffffffffffffffffffffffffffffffffffffff161415611985576040517f08c379a000000000000000000000000000000000000000000000000000000000815260040161197c906137d4565b60405180910390fd5b61198e81612065565b50565b61199961205d565b73ffffffffffffffffffffffffffffffffffffffff166119b76111e1565b73ffffffffffffffffffffffffffffffffffffffff1614611a0d576040517f08c379a0000000000000000000000000000000000000000000000000000000008152600401611a0490613914565b60405180910390fd5b60026001541415611a53576040517f08c379a0000000000000000000000000000000000000000000000000000000008152600401611a4a906139b4565b60405180910390fd5b6002600181905550600073ffffffffffffffffffffffffffffffffffffffff168173ffffffffffffffffffffffffffffffffffffffff161415611acb576040517f08c379a0000000000000000000000000000000000000000000000000000000008152600401611ac290613834565b60405180910390fd5b80600260006101000a81548173ffffffffffffffffffffffffffffffffffffffff021916908373ffffffffffffffffffffffffffffffffffffffff16021790555080600360006101000a81548173ffffffffffffffffffffffffffffffffffffffff021916908373ffffffffffffffffffffffffffffffffffffffff1602179055506001808190555050565b60011515600e60008473ffffffffffffffffffffffffffffffffffffffff1673ffffffffffffffffffffffffffffffffffffffff168152602001908152602001600020600083815260200190815260200160002060009054906101000a900460ff16151514611bfb576040517f08c379a0000000000000000000000000000000000000000000000000000000008152600401611bf290613a14565b60405180910390fd5b60001515600e60008473ffffffffffffffffffffffffffffffffffffffff1673ffffffffffffffffffffffffffffffffffffffff168152602001908152602001600020600083815260200190815260200160002060009054906101000a90505050600260009054906101000a900473ffffffffffffffffffffffffffffffffffffffff1673ffffffffffffffffffffffffffffffffffffffff166323b872dd3084846040518463ffffffff1660e01b8152600401611cbb93929190613719565b600060405180830381600087803b158015611cd557600080fd5b505af1158015611ce9573d6000803e3d6000fd5b505050505050565b8173ffffffffffffffffffffffffffffffffffffffff166009600083815260200190815260200160002060000160009054906101000a900473ffffffffffffffffffffffffffffffffffffffff1673ffffffffffffffffffffffffffffffffffffffff1614611d95576040517f08c379a0000000000000000000000000000000000000000000000000000000008152600401611d8c906137f4565b60405180910390fd5b60096000828152602001908152602001600020600080820160006101000a81549073ffffffffffffffffffffffffffffffffffffffff02191690556001820160009055600282016000905550506000600a60008473ffffffffffffffffffffffffffffffffffffffff1673ffffffffffffffffffffffffffffffffffffffff168152602001908152602001600020600083815260200190815260200160002060006101000a81548160ff0219169083151502179055506000611e57838361120a565b9050600b60008473ffffffffffffffffffffffffffffffffffffffff1673ffffffffffffffffffffffffffffffffffffffff1681526020019081526020016000206001600b60008673ffffffffffffffffffffffffffffffffffffffff1673ffffffffffffffffffffffffffffffffffffffff16815260200190815260200160002080549050611ee79190613b4e565b81548110611ef857611ef7613cb9565b5b9060005260206000200154600b60008573ffffffffffffffffffffffffffffffffffffffff1673ffffffffffffffffffffffffffffffffffffffff1681526020019081526020016000208281548110611f5457611f53613cb9565b5b9060005260206000200181905550600b60008473ffffffffffffffffffffffffffffffffffffffff1673ffffffffffffffffffffffffffffffffffffffff168152602001908152602001600020805480611fb157611fb0613c8a565b5b60019003818190600052602060002001600090559055600260009054906101000a900473ffffffffffffffffffffffffffffffffffffffff1673ffffffffffffffffffffffffffffffffffffffff166323b872dd3085856040518463ffffffff1660e01b815260040161202693929190613719565b600060405180830381600087803b15801561204057600080fd5b505af1158015612054573d6000803e3d6000fd5b50505050505050565b600033905090565b60008060009054906101000a900473ffffffffffffffffffffffffffffffffffffffff169050816000806101000a81548173ffffffffffffffffffffffffffffffffffffffff021916908373ffffffffffffffffffffffffffffffffffffffff1602179055508173ffffffffffffffffffffffffffffffffffffffff168173ffffffffffffffffffffffffffffffffffffffff167f8be0079c531659141344cd1fd0a4f28419497f9722a3daafe3b4186f6b6457e060405160405180910390a35050565b8273ffffffffffffffffffffffffffffffffffffffff16600260009054906101000a900473ffffffffffffffffffffffffffffffffffffffff1673ffffffffffffffffffffffffffffffffffffffff16636352211e846040518263ffffffff1660e01b815260040161219b9190613a4f565b60206040518083038186803b1580156121b357600080fd5b505afa1580156121c7573d6000803e3d6000fd5b505050506040513d601f19601f820116820180604052508101906121eb919061303e565b73ffffffffffffffffffffffffffffffffffffffff1614612241576040517f08c379a000000000000000000000000000000000000000000000000000000000815260040161223890613894565b60405180910390fd5b6001151560056000848152602001908152602001600020828154811061226a57612269613cb9565b5b906000526020600020906005020160040160009054906101000a900460ff161515146122cb576040517f08c379a00000000000000000000000000000000000000000000000000000000081526004016122c290613974565b60405180910390fd5b600260009054906101000a900473ffffffffffffffffffffffffffffffffffffffff1673ffffffffffffffffffffffffffffffffffffffff166323b872dd8430856040518463ffffffff1660e01b815260040161232a93929190613719565b600060405180830381600087803b15801561234457600080fd5b505af1158015612358573d6000803e3d6000fd5b50505050600060056000848152602001908152602001600020828154811061238357612382613cb9565b5b906000526020600020906005020160010154905060006005600085815260200190815260200160002083815481106123be576123bd613cb9565b5b906000526020600020906005020160000160009054906101000a900473ffffffffffffffffffffffffffffffffffffffff16905060056000858152602001908152602001600020600160056000878152602001908152602001600020805490506124289190613b4e565b8154811061243957612438613cb9565b5b906000526020600020906005020160056000868152602001908152602001600020848154811061246c5761246b613cb9565b5b90600052602060002090600502016000820160009054906101000a900473ffffffffffffffffffffffffffffffffffffffff168160000160006101000a81548173ffffffffffffffffffffffffffffffffffffffff021916908373ffffffffffffffffffffffffffffffffffffffff1602179055506001820154816001015560028201548160020155600382015481600301556004820160009054906101000a900460ff168160040160006101000a81548160ff0219169083151502179055509050506005600085815260200190815260200160002080548061255257612551613c8a565b5b6001900381819060005260206000209060050201600080820160006101000a81549073ffffffffffffffffffffffffffffffffffffffff02191690556001820160009055600282016000905560038201600090556004820160006101000a81549060ff02191690555050905581600d60008373ffffffffffffffffffffffffffffffffffffffff1673ffffffffffffffffffffffffffffffffffffffff168152602001908152602001600020600082825461260d9190613b4e565b9250508190555081600c60008773ffffffffffffffffffffffffffffffffffffffff1673ffffffffffffffffffffffffffffffffffffffff16815260200190815260200160002060008282546126639190613af8565b925050819055506001600e60008373ffffffffffffffffffffffffffffffffffffffff1673ffffffffffffffffffffffffffffffffffffffff168152602001908152602001600020600086815260200190815260200160002060006101000a81548160ff0219169083151502179055505050505050565b3373ffffffffffffffffffffffffffffffffffffffff1660056000848152602001908152602001600020828154811061271657612715613cb9565b5b906000526020600020906005020160000160009054906101000a900473ffffffffffffffffffffffffffffffffffffffff1673ffffffffffffffffffffffffffffffffffffffff161461279e576040517f08c379a0000000000000000000000000000000000000000000000000000000008152600401612795906138f4565b60405180910390fd5b60006005600084815260200190815260200160002082815481106127c5576127c4613cb9565b5b906000526020600020906005020160010154905080600d60003373ffffffffffffffffffffffffffffffffffffffff1673ffffffffffffffffffffffffffffffffffffffff16815260200190815260200160002060008282546128289190613b4e565b9250508190555060056000848152602001908152602001600020600160056000868152602001908152602001600020805490506128659190613b4e565b8154811061287657612875613cb9565b5b90600052602060002090600502016005600085815260200190815260200160002083815481106128a9576128a8613cb9565b5b90600052602060002090600502016000820160009054906101000a900473ffffffffffffffffffffffffffffffffffffffff168160000160006101000a81548173ffffffffffffffffffffffffffffffffffffffff021916908373ffffffffffffffffffffffffffffffffffffffff1602179055506001820154816001015560028201548160020155600382015481600301556004820160009054906101000a900460ff168160040160006101000a81548160ff0219169083151502179055509050506005600084815260200190815260200160002080548061298f5761298e613c8a565b5b6001900381819060005260206000209060050201600080820160006101000a81549073ffffffffffffffffffffffffffffffffffffffff02191690556001820160009055600282016000905560038201600090556004820160006101000a81549060ff02191690555050905560008473ffffffffffffffffffffffffffffffffffffffff1682604051612a2190613628565b60006040518083038185875af1925050503d8060008114612a5e576040519150601f19603f3d011682016040523d82523d6000602084013e612a63565b606091505b5050905080612aa7576040517f08c379a0000000000000000000000000000000000000000000000000000000008152600401612a9e906138d4565b60405180910390fd5b5050505050565b60006005600084815260200190815260200160002080549050905060006040518060a001604052808673ffffffffffffffffffffffffffffffffffffffff1681526020018481526020018381526020018581526020016001151581525090506005600085815260200190815260200160002081908060018154018082558091505060019003906000526020600020906005020160009091909190915060008201518160000160006101000a81548173ffffffffffffffffffffffffffffffffffffffff021916908373ffffffffffffffffffffffffffffffffffffffff16021790555060208201518160010155604082015181600201556060820151816003015560808201518160040160006101000a81548160ff02191690831515021790555050505050505050565b600260009054906101000a900473ffffffffffffffffffffffffffffffffffffffff1673ffffffffffffffffffffffffffffffffffffffff16636352211e836040518263ffffffff1660e01b8152600401612c339190613a4f565b60206040518083038186803b158015612c4b57600080fd5b505afa158015612c5f573d6000803e3d6000fd5b505050506040513d601f19601f82011682018060405250810190612c83919061303e565b73ffffffffffffffffffffffffffffffffffffffff168373ffffffffffffffffffffffffffffffffffffffff1614612cf0576040517f08c379a0000000000000000000000000000000000000000000000000000000008152600401612ce7906137b4565b60405180910390fd5b60001515600a60008573ffffffffffffffffffffffffffffffffffffffff1673ffffffffffffffffffffffffffffffffffffffff168152602001908152602001600020600084815260200190815260200160002060009054906101000a900460ff16151514612d94576040517f08c379a0000000000000000000000000000000000000000000000000000000008152600401612d8b90613954565b60405180910390fd5b600260009054906101000a900473ffffffffffffffffffffffffffffffffffffffff1673ffffffffffffffffffffffffffffffffffffffff166323b872dd8430856040518463ffffffff1660e01b8152600401612df393929190613658565b600060405180830381600087803b158015612e0d57600080fd5b505af1158015612e21573d6000803e3d6000fd5b505050506001600a60008573ffffffffffffffffffffffffffffffffffffffff1673ffffffffffffffffffffffffffffffffffffffff168152602001908152602001600020600084815260200190815260200160002060006101000a81548160ff02191690831515021790555060405180606001604052808473ffffffffffffffffffffffffffffffffffffffff168152602001828152602001838152506009600084815260200190815260200160002060008201518160000160006101000a81548173ffffffffffffffffffffffffffffffffffffffff021916908373ffffffffffffffffffffffffffffffffffffffff1602179055506020820151816001015560408201518160020155905050600b60008473ffffffffffffffffffffffffffffffffffffffff1673ffffffffffffffffffffffffffffffffffffffff168152602001908152602001600020829080600181540180825580915050600190039060005260206000200160009091909190915055505050565b6040518060600160405280600073ffffffffffffffffffffffffffffffffffffffff16815260200160008152602001600081525090565b600081359050612fe1816140bf565b92915050565b600081519050612ff6816140bf565b92915050565b60008135905061300b816140d6565b92915050565b60006020828403121561302757613026613ce8565b5b600061303584828501612fd2565b91505092915050565b60006020828403121561305457613053613ce8565b5b600061306284828501612fe7565b91505092915050565b6000806040838503121561308257613081613ce8565b5b600061309085828601612fd2565b92505060206130a185828601612ffc565b9150509250929050565b6000602082840312156130c1576130c0613ce8565b5b60006130cf84828501612ffc565b91505092915050565b600080604083850312156130ef576130ee613ce8565b5b60006130fd85828601612ffc565b925050602061310e85828601612ffc565b9150509250929050565b60006131248383613560565b60a08301905092915050565b600061313c838361360a565b60208301905092915050565b61315181613bdc565b82525050565b61316081613b94565b82525050565b61316f81613b94565b82525050565b61317e81613b82565b82525050565b600061318f82613a8a565b6131998185613aba565b93506131a483613a6a565b8060005b838110156131d55781516131bc8882613118565b97506131c783613aa0565b9250506001810190506131a8565b5085935050505092915050565b60006131ed82613a95565b6131f78185613acb565b935061320283613a7a565b8060005b8381101561323357815161321a8882613130565b975061322583613aad565b925050600181019050613206565b5085935050505092915050565b61324981613ba6565b82525050565b61325881613ba6565b82525050565b600061326b600d83613ae7565b915061327682613ced565b602082019050919050565b600061328e601383613ae7565b915061329982613d16565b602082019050919050565b60006132b1602683613ae7565b91506132bc82613d3f565b604082019050919050565b60006132d4601283613ae7565b91506132df82613d8e565b602082019050919050565b60006132f7601c83613ae7565b915061330282613db7565b602082019050919050565b600061331a601383613ae7565b915061332582613de0565b602082019050919050565b600061333d602b83613ae7565b915061334882613e09565b604082019050919050565b6000613360600b83613ae7565b915061336b82613e58565b602082019050919050565b6000613383602783613ae7565b915061338e82613e81565b604082019050919050565b60006133a6600b83613ae7565b91506133b182613ed0565b602082019050919050565b60006133c9600f83613ae7565b91506133d482613ef9565b602082019050919050565b60006133ec601683613ae7565b91506133f782613f22565b602082019050919050565b600061340f602083613ae7565b915061341a82613f4b565b602082019050919050565b6000613432601283613ae7565b915061343d82613f74565b602082019050919050565b6000613455601083613ae7565b915061346082613f9d565b602082019050919050565b6000613478600083613adc565b915061348382613fc6565b600082019050919050565b600061349b601683613ae7565b91506134a682613fc9565b602082019050919050565b60006134be601e83613ae7565b91506134c982613ff2565b602082019050919050565b60006134e1601f83613ae7565b91506134ec8261401b565b602082019050919050565b6000613504601183613ae7565b915061350f82614044565b602082019050919050565b6000613527601283613ae7565b91506135328261406d565b602082019050919050565b600061354a601883613ae7565b915061355582614096565b602082019050919050565b60a0820160008201516135766000850182613157565b506020820151613589602085018261360a565b50604082015161359c604085018261360a565b5060608201516135af606085018261360a565b5060808201516135c26080850182613240565b50505050565b6060820160008201516135de6000850182613157565b5060208201516135f1602085018261360a565b506040820151613604604085018261360a565b50505050565b61361381613bd2565b82525050565b61362281613bd2565b82525050565b60006136338261346b565b9150819050919050565b60006020820190506136526000830184613175565b92915050565b600060608201905061366d6000830186613148565b61367a6020830185613175565b6136876040830184613619565b949350505050565b60006060820190506136a46000830186613166565b6136b16020830185613619565b6136be6040830184613619565b949350505050565b600060a0820190506136db6000830188613166565b6136e86020830187613619565b6136f56040830186613619565b6137026060830185613619565b61370f608083018461324f565b9695505050505050565b600060608201905061372e6000830186613175565b61373b6020830185613175565b6137486040830184613619565b949350505050565b6000602082019050818103600083015261376a8184613184565b905092915050565b6000602082019050818103600083015261378c81846131e2565b905092915050565b600060208201905081810360008301526137ad8161325e565b9050919050565b600060208201905081810360008301526137cd81613281565b9050919050565b600060208201905081810360008301526137ed816132a4565b9050919050565b6000602082019050818103600083015261380d816132c7565b9050919050565b6000602082019050818103600083015261382d816132ea565b9050919050565b6000602082019050818103600083015261384d8161330d565b9050919050565b6000602082019050818103600083015261386d81613330565b9050919050565b6000602082019050818103600083015261388d81613353565b9050919050565b600060208201905081810360008301526138ad81613376565b9050919050565b600060208201905081810360008301526138cd81613399565b9050919050565b600060208201905081810360008301526138ed816133bc565b9050919050565b6000602082019050818103600083015261390d816133df565b9050919050565b6000602082019050818103600083015261392d81613402565b9050919050565b6000602082019050818103600083015261394d81613425565b9050919050565b6000602082019050818103600083015261396d81613448565b9050919050565b6000602082019050818103600083015261398d8161348e565b9050919050565b600060208201905081810360008301526139ad816134b1565b9050919050565b600060208201905081810360008301526139cd816134d4565b9050919050565b600060208201905081810360008301526139ed816134f7565b9050919050565b60006020820190508181036000830152613a0d8161351a565b9050919050565b60006020820190508181036000830152613a2d8161353d565b9050919050565b6000606082019050613a4960008301846135c8565b92915050565b6000602082019050613a646000830184613619565b92915050565b6000819050602082019050919050565b6000819050602082019050919050565b600081519050919050565b600081519050919050565b6000602082019050919050565b6000602082019050919050565b600082825260208201905092915050565b600082825260208201905092915050565b600081905092915050565b600082825260208201905092915050565b6000613b0382613bd2565b9150613b0e83613bd2565b9250827fffffffffffffffffffffffffffffffffffffffffffffffffffffffffffffffff03821115613b4357613b42613c5b565b5b828201905092915050565b6000613b5982613bd2565b9150613b6483613bd2565b925082821015613b7757613b76613c5b565b5b828203905092915050565b6000613b8d82613bb2565b9050919050565b6000613b9f82613bb2565b9050919050565b60008115159050919050565b600073ffffffffffffffffffffffffffffffffffffffff82169050919050565b6000819050919050565b6000613be782613bee565b9050919050565b6000613bf982613c00565b9050919050565b6000613c0b82613bb2565b9050919050565b6000613c1d82613bd2565b91507fffffffffffffffffffffffffffffffffffffffffffffffffffffffffffffffff821415613c5057613c4f613c5b565b5b600182019050919050565b7f4e487b7100000000000000000000000000000000000000000000000000000000600052601160045260246000fd5b7f4e487b7100000000000000000000000000000000000000000000000000000000600052603160045260246000fd5b7f4e487b7100000000000000000000000000000000000000000000000000000000600052603260045260246000fd5b600080fd5b7f616c7265616479206f776e657200000000000000000000000000000000000000600082015250565b7f4e6f74204f776e6572205374696b69204e465400000000000000000000000000600082015250565b7f4f776e61626c653a206e6577206f776e657220697320746865207a65726f206160008201527f6464726573730000000000000000000000000000000000000000000000000000602082015250565b7f546869732069736e7420796f7572207075740000000000000000000000000000600082015250565b7f74686973206f6666657220697320616c72656164792061637469766500000000600082015250565b7f53657420636f7272656374204164647265737300000000000000000000000000600082015250565b7f53656e6420636f72726563742045746820696e20636f6e747261637420666f7260008201527f20796f7572206f66666572000000000000000000000000000000000000000000602082015250565b7f576964726f77206661696c000000000000000000000000000000000000000000600082015250565b7f796f7520686176656e2774206f776e6572277320646972696374206f6e20746860008201527f6973206e66742000000000000000000000000000000000000000000000000000602082015250565b7f62616c616e6365206c6f77000000000000000000000000000000000000000000600082015250565b7f526570617920457468206661696c6c0000000000000000000000000000000000600082015250565b7f74686973206e6f7420697320796f7572206f6666657200000000000000000000600082015250565b7f4f776e61626c653a2063616c6c6572206973206e6f7420746865206f776e6572600082015250565b7f7472616e73666572204e4674206661696c6c0000000000000000000000000000600082015250565b7f4e6674206a75737420696e206c69737400000000000000000000000000000000600082015250565b50565b7f74686973206f6666657220697320646561637469766500000000000000000000600082015250565b7f74686973206f6666657220697320616c72656164792064656163746976650000600082015250565b7f5265656e7472616e637947756172643a207265656e7472616e742063616c6c00600082015250565b7f53657420636f72726563742076616c7565000000000000000000000000000000600082015250565b7f6e6674206e6f7420696e2073656c6c696e670000000000000000000000000000600082015250565b7f6e6f74206176616c69626c6520666f7220776964726f776c0000000000000000600082015250565b6140c881613b82565b81146140d357600080fd5b50565b6140df81613bd2565b81146140ea57600080fd5b5056fea264697066735822122078b699790bc5de93886a83b2fe9da50a2d705306971d5c319d9a92392ee55fe564736f6c63430008070033",
  "immutableReferences": {},
  "source": "// SPDX-License-Identifier: Leluk911\npragma solidity 0.8.7;\n\nimport \"../node_modules/@openzeppelin/contracts/token/ERC721/IERC721.sol\";\nimport \"../contracts/interface/INewStikiNft.sol\";\nimport \"../contracts/stikiToken.sol\";\nimport \"../node_modules/@openzeppelin/contracts/access/Ownable.sol\";\nimport \"../node_modules/@openzeppelin/contracts/security/ReentrancyGuard.sol\";\n\ncontract MarketplaceStiki is Ownable, ReentrancyGuard {\n    IERC721 private Ierc721;\n    IStikiNFT private Isnft;\n\n    constructor(address _NftContract) {\n        require(_NftContract != address(0), \"Set correct Address\");\n        Ierc721 = IERC721(_NftContract);\n        Isnft = IStikiNFT(_NftContract);\n    }\n\n    // buyer\n    struct OfferBuy {\n        address payable Buyer;\n        uint256 price;\n        uint256 index;\n        uint256 tokenId;\n        bool active;\n    }\n    OfferBuy[] public offersBuy;\n\n    // tokenID => offerSeller\n    mapping(uint256 => OfferBuy[]) TokenIdToOfferBuyer;\n\n    //Seller\n    struct OfferSeller {\n        address payable Seller;\n        uint256 price;\n        uint256 tokenId;\n    }\n    OfferSeller public offersSell;\n\n    // tokenID => offerBuyer\n    mapping(uint256 => OfferSeller) TokenToOfferSeller;\n\n    function setNewStikiContract(address _contract)\n        external\n        onlyOwner\n        nonReentrant\n    {\n        require(_contract != address(0), \"Set correct Address\");\n        Ierc721 = IERC721(_contract);\n        Isnft = IStikiNFT(_contract);\n    }\n\n    // Function Seller\n    //ricevuta di deposito\n    // bool =>(address=>tokenId)\n    mapping(address => mapping(uint256 => bool)) receiptDeposit;\n\n    // address => [nftIdSEll,..,...,..]\n    mapping(address => uint256[]) userListSell;\n\n    function viewUserListSell(address _user)\n        public\n        view\n        returns (uint256[] memory)\n    {\n        return userListSell[_user];\n    }\n\n    function _putSell(\n        address payable _to,\n        uint256 _tokenId,\n        uint256 _price\n    ) internal {\n        require(_to == Ierc721.ownerOf(_tokenId), \"Not Owner Stiki NFT\");\n        require(receiptDeposit[_to][_tokenId] == false, \"Nft just in list\");\n        Ierc721.transferFrom(_to, address(this), _tokenId);\n        receiptDeposit[_to][_tokenId] = true;\n\n        TokenToOfferSeller[_tokenId] = OfferSeller(_to, _price, _tokenId);\n        userListSell[_to].push(_tokenId);\n    }\n\n    function putSell(uint256 _tokenId, uint256 _price) external nonReentrant {\n        _putSell(payable(msg.sender), _tokenId, _price);\n    }\n\n    function viewUserListSellIndex(address _user, uint256 _tokenId)\n        public\n        view\n        returns (uint256 i)\n    {\n        for (; i < userListSell[_user].length; i++)\n            if (userListSell[_user][i] == _tokenId) {\n                return i;\n            }\n    }\n\n    function _removePutSell(address _to, uint256 _tokenId) internal {\n        require(\n            TokenToOfferSeller[_tokenId].Seller == _to,\n            \"This isnt your put\"\n        );\n        delete TokenToOfferSeller[_tokenId];\n        receiptDeposit[_to][_tokenId] = false;\n\n        uint256 i = viewUserListSellIndex(_to, _tokenId);\n        userListSell[_to][i] = userListSell[_to][userListSell[_to].length - 1];\n        userListSell[_to].pop();\n        Ierc721.transferFrom(address(this), _to, _tokenId);\n    }\n\n    function removePutSell(uint256 _tokenId) external {\n        _removePutSell(msg.sender, _tokenId);\n    }\n\n    function viewPuttSell(uint256 _tokenId)\n        public\n        view\n        returns (OfferSeller memory)\n    {\n        return TokenToOfferSeller[_tokenId];\n    }\n\n    // Proventi della vedita\n    mapping(address => uint256) balanceSelling;\n\n    function fillPutSell(uint256 _tokenId) external payable nonReentrant {\n        //chek\n        require(\n            receiptDeposit[TokenToOfferSeller[_tokenId].Seller][_tokenId] ==\n                true,\n            \"nft not in selling\"\n        );\n        require(\n            msg.value == TokenToOfferSeller[_tokenId].price,\n            \"Set correct value\"\n        );\n\n        balanceSelling[TokenToOfferSeller[_tokenId].Seller] += msg.value;\n        receiptDeposit[TokenToOfferSeller[_tokenId].Seller][_tokenId] = false;\n        uint256 i = viewUserListSellIndex(\n            TokenToOfferSeller[_tokenId].Seller,\n            _tokenId\n        );\n\n        userListSell[TokenToOfferSeller[_tokenId].Seller][i] = userListSell[\n            TokenToOfferSeller[_tokenId].Seller\n        ][userListSell[TokenToOfferSeller[_tokenId].Seller].length - 1];\n        userListSell[TokenToOfferSeller[_tokenId].Seller].pop();\n        // result\n        delete TokenToOfferSeller[_tokenId];\n\n        Ierc721.transferFrom(address(this), msg.sender, _tokenId);\n\n        require(Ierc721.ownerOf(_tokenId) == msg.sender, \"transfer NFt faill\");\n    }\n\n    function viewBalance(address _owner) public view returns (uint256) {\n        return balanceSelling[_owner];\n    }\n\n    function widrowProfitSell() external nonReentrant {\n        require(\n            address(this).balance >= viewBalance(msg.sender),\n            \"balance low\"\n        );\n        uint256 profit = viewBalance(msg.sender);\n        balanceSelling[msg.sender] = 0;\n        (bool success, ) = msg.sender.call{value: profit}(\"\");\n        require(success, \"Widrow fail\");\n    }\n\n    /**\n     struct OfferBuy {\n        address payable Buyer;\n        uint256 price;\n        uint256 index;\n        uint256 tokenId;\n        bool active;\n        \n    }\n    OfferBuy[] public offersBuy;\n\n    // tokenID => offerSeller\n    mapping(uint256 => OfferBuy) TokenIdToOfferBuyer; */\n    mapping(address => uint256) depositEthBuyer;\n\n    function putBuyOffer(uint256 _price, uint256 _tokenId) external payable {\n        require(Ierc721.ownerOf(_tokenId) != msg.sender, \"already owner\");\n        require(\n            msg.value == _price,\n            \"Send correct Eth in contract for your offer\"\n        );\n        depositEthBuyer[msg.sender] += msg.value;\n        address payable _to = payable(msg.sender);\n        _putBuyOffer(_to, _tokenId, msg.value);\n    }\n\n    function _putBuyOffer(\n        address payable _to,\n        uint256 _tokenId,\n        uint256 _price\n    ) internal {\n        uint256 index = TokenIdToOfferBuyer[_tokenId].length;\n        OfferBuy memory Offer = OfferBuy(_to, _price, index, _tokenId, true);\n        TokenIdToOfferBuyer[_tokenId].push(Offer);\n    }\n\n    function deactiveBuyOffer(uint256 _tokenId, uint256 _index) external {\n        require(\n            TokenIdToOfferBuyer[_tokenId][_index].Buyer == msg.sender,\n            \"this not is your offer\"\n        );\n        require(\n            TokenIdToOfferBuyer[_tokenId][_index].active == true,\n            \"this offer is already deactive\"\n        );\n        TokenIdToOfferBuyer[_tokenId][_index].active = false;\n    }\n\n    function reactiveBuyOffer(uint256 _tokenId, uint256 _index) external {\n        require(\n            TokenIdToOfferBuyer[_tokenId][_index].Buyer == msg.sender,\n            \"this not is your offer\"\n        );\n        require(\n            TokenIdToOfferBuyer[_tokenId][_index].active == false,\n            \"this offer is already active\"\n        );\n        TokenIdToOfferBuyer[_tokenId][_index].active = true;\n    }\n\n    function _deletOfferBuyer(\n        address _to,\n        uint256 _tokenId,\n        uint256 _index\n    ) internal {\n        require(\n            TokenIdToOfferBuyer[_tokenId][_index].Buyer == msg.sender,\n            \"this not is your offer\"\n        );\n        uint256 repay = TokenIdToOfferBuyer[_tokenId][_index].price;\n        depositEthBuyer[msg.sender] -= repay;\n\n        TokenIdToOfferBuyer[_tokenId][_index] = TokenIdToOfferBuyer[_tokenId][\n            TokenIdToOfferBuyer[_tokenId].length - 1\n        ];\n        TokenIdToOfferBuyer[_tokenId].pop();\n\n        (bool success, ) = _to.call{value: repay}(\"\");\n        require(success, \"Repay Eth faill\");\n    }\n\n    function deletOfferBuyer(uint256 _tokenId, uint256 _index)\n        external\n        nonReentrant\n    {\n        _deletOfferBuyer(msg.sender, _tokenId, _index);\n    }\n\n    // buyer => nft == riceipt for deposit\n    mapping(address => mapping(uint256 => bool)) recptNftBuy;\n\n    function _fillBuyerOffer(\n        address _to,\n        uint256 _tokenId,\n        uint256 _index\n    ) internal {\n        require(\n            Ierc721.ownerOf(_tokenId) == _to,\n            \"you haven't owner's dirict on this nft \"\n        );\n        require(\n            TokenIdToOfferBuyer[_tokenId][_index].active == true,\n            \"this offer is deactive\"\n        );\n        Ierc721.transferFrom(_to, address(this), _tokenId);\n        uint256 price = TokenIdToOfferBuyer[_tokenId][_index].price;\n        address buyer = TokenIdToOfferBuyer[_tokenId][_index].Buyer;\n\n        //delet Offer\n        TokenIdToOfferBuyer[_tokenId][_index] = TokenIdToOfferBuyer[_tokenId][\n            TokenIdToOfferBuyer[_tokenId].length - 1\n        ];\n        TokenIdToOfferBuyer[_tokenId].pop();\n\n        depositEthBuyer[buyer] -= price;\n        balanceSelling[_to] += price;\n\n        recptNftBuy[buyer][_tokenId] = true;\n    }\n\n    function fillBuyerOffer(uint256 _tokenId, uint256 _index) external {\n        _fillBuyerOffer(msg.sender, _tokenId, _index);\n    }\n\n    function _widrowlNftBuy(address _to, uint256 _tokenId) internal {\n        require(recptNftBuy[_to][_tokenId] == true, \"not avalible for widrowl\");\n        recptNftBuy[_to][_tokenId] == false;\n        Ierc721.transferFrom(address(this), _to, _tokenId);\n    }\n\n    function widrowlNftBuy(uint256 _tokenId) external nonReentrant {\n        _widrowlNftBuy(msg.sender, _tokenId);\n    }\n\n    function viewBuyOfferForToken(uint256 _tokenId)\n        public\n        view\n        returns (OfferBuy[] memory)\n    {\n        return TokenIdToOfferBuyer[_tokenId];\n    }\n}\n",
  "sourcePath": "/Users/lucianodinoia/Desktop/moralis Academy/Build an NFT Marketplace/Stiki war react-moralis/contracts/MarketplaceStiki.sol",
  "compiler": {
    "name": "solc",
    "version": "0.8.7+commit.e28d00a7.Emscripten.clang"
  },
  "schemaVersion": "3.4.6",
  "updatedAt": "2022-05-13T20:09:41.266Z",
  "networkType": "ethereum",
  "devdoc": {
    "kind": "dev",
    "methods": {
      "owner()": {
        "details": "Returns the address of the current owner."
      },
      "renounceOwnership()": {
        "details": "Leaves the contract without owner. It will not be possible to call `onlyOwner` functions anymore. Can only be called by the current owner. NOTE: Renouncing ownership will leave the contract without an owner, thereby removing any functionality that is only available to the owner."
      },
      "transferOwnership(address)": {
        "details": "Transfers ownership of the contract to a new account (`newOwner`). Can only be called by the current owner."
      }
    },
    "version": 1
  },
  "userdoc": {
    "kind": "user",
    "methods": {},
    "version": 1
  }
}