{
  "contractName": "MintContract",
  "abi": [
    {
      "inputs": [
        {
          "internalType": "address",
          "name": "_usdc",
          "type": "address"
        },
        {
          "internalType": "address",
          "name": "_StikiToken",
          "type": "address"
        },
        {
          "internalType": "uint256",
          "name": "_priceStiki",
          "type": "uint256"
        }
      ],
      "stateMutability": "nonpayable",
      "type": "constructor"
    },
    {
      "anonymous": false,
      "inputs": [
        {
          "indexed": true,
          "internalType": "address",
          "name": "previousOwner",
          "type": "address"
        },
        {
          "indexed": true,
          "internalType": "address",
          "name": "newOwner",
          "type": "address"
        }
      ],
      "name": "OwnershipTransferred",
      "type": "event"
    },
    {
      "inputs": [],
      "name": "owner",
      "outputs": [
        {
          "internalType": "address",
          "name": "",
          "type": "address"
        }
      ],
      "stateMutability": "view",
      "type": "function",
      "constant": true
    },
    {
      "inputs": [],
      "name": "renounceOwnership",
      "outputs": [],
      "stateMutability": "nonpayable",
      "type": "function"
    },
    {
      "inputs": [
        {
          "internalType": "address",
          "name": "newOwner",
          "type": "address"
        }
      ],
      "name": "transferOwnership",
      "outputs": [],
      "stateMutability": "nonpayable",
      "type": "function"
    },
    {
      "inputs": [
        {
          "internalType": "address",
          "name": "_StikiNft",
          "type": "address"
        }
      ],
      "name": "setAddrStikiNft",
      "outputs": [],
      "stateMutability": "nonpayable",
      "type": "function"
    },
    {
      "inputs": [
        {
          "internalType": "string",
          "name": "_name",
          "type": "string"
        },
        {
          "internalType": "uint256",
          "name": "_lifepoint",
          "type": "uint256"
        },
        {
          "internalType": "uint256",
          "name": "_power",
          "type": "uint256"
        },
        {
          "internalType": "uint256",
          "name": "_dex",
          "type": "uint256"
        },
        {
          "internalType": "uint256",
          "name": "_stamina",
          "type": "uint256"
        },
        {
          "internalType": "uint256",
          "name": "_speed",
          "type": "uint256"
        }
      ],
      "name": "MintStiki",
      "outputs": [],
      "stateMutability": "nonpayable",
      "type": "function"
    },
    {
      "inputs": [
        {
          "internalType": "address",
          "name": "_to",
          "type": "address"
        },
        {
          "internalType": "uint256",
          "name": "_amount",
          "type": "uint256"
        }
      ],
      "name": "BuyStikiToken",
      "outputs": [],
      "stateMutability": "nonpayable",
      "type": "function"
    },
    {
      "inputs": [],
      "name": "withdrawalUsdc",
      "outputs": [],
      "stateMutability": "nonpayable",
      "type": "function"
    },
    {
      "inputs": [],
      "name": "balanceOfUsdc",
      "outputs": [
        {
          "internalType": "uint256",
          "name": "",
          "type": "uint256"
        }
      ],
      "stateMutability": "view",
      "type": "function",
      "constant": true
    }
  ],
  "bytecode": "0x60806040523480156200001157600080fd5b50604051620019b4380380620019b48339818101604052810190620000379190620001e3565b620000576200004b620000e960201b60201c565b620000f160201b60201c565b82600260006101000a81548173ffffffffffffffffffffffffffffffffffffffff021916908373ffffffffffffffffffffffffffffffffffffffff1602179055508060048190555081600360006101000a81548173ffffffffffffffffffffffffffffffffffffffff021916908373ffffffffffffffffffffffffffffffffffffffff160217905550505050620002b6565b600033905090565b60008060009054906101000a900473ffffffffffffffffffffffffffffffffffffffff169050816000806101000a81548173ffffffffffffffffffffffffffffffffffffffff021916908373ffffffffffffffffffffffffffffffffffffffff1602179055508173ffffffffffffffffffffffffffffffffffffffff168173ffffffffffffffffffffffffffffffffffffffff167f8be0079c531659141344cd1fd0a4f28419497f9722a3daafe3b4186f6b6457e060405160405180910390a35050565b600081519050620001c68162000282565b92915050565b600081519050620001dd816200029c565b92915050565b600080600060608486031215620001ff57620001fe6200027d565b5b60006200020f86828701620001b5565b93505060206200022286828701620001b5565b92505060406200023586828701620001cc565b9150509250925092565b60006200024c8262000253565b9050919050565b600073ffffffffffffffffffffffffffffffffffffffff82169050919050565b6000819050919050565b600080fd5b6200028d816200023f565b81146200029957600080fd5b50565b620002a78162000273565b8114620002b357600080fd5b50565b6116ee80620002c66000396000f3fe608060405234801561001057600080fd5b50600436106100885760003560e01c8063c1e9771e1161005b578063c1e9771e146100ef578063cc7247af1461010b578063f2fde38b14610115578063f7207de21461013157610088565b806340b59b281461008d5780636eae7f44146100a9578063715018a6146100c75780638da5cb5b146100d1575b600080fd5b6100a760048036038101906100a29190610fa2565b61014d565b005b6100b161044c565b6040516100be9190611399565b60405180910390f35b6100cf61057a565b005b6100d9610602565b6040516100e691906111cf565b60405180910390f35b61010960048036038101906101049190610f35565b61062b565b005b610113610639565b005b61012f600480360381019061012a9190610f08565b610811565b005b61014b60048036038101906101469190610f08565b610909565b005b6000600360009054906101000a900473ffffffffffffffffffffffffffffffffffffffff1673ffffffffffffffffffffffffffffffffffffffff166370a08231306040518263ffffffff1660e01b81526004016101aa91906111cf565b60206040518083038186803b1580156101c257600080fd5b505afa1580156101d6573d6000803e3d6000fd5b505050506040513d601f19601f820116820180604052508101906101fa9190611051565b9050600360009054906101000a900473ffffffffffffffffffffffffffffffffffffffff1673ffffffffffffffffffffffffffffffffffffffff166323b872dd333060646040518463ffffffff1660e01b815260040161025c939291906111ea565b602060405180830381600087803b15801561027657600080fd5b505af115801561028a573d6000803e3d6000fd5b505050506040513d601f19601f820116820180604052508101906102ae9190610f75565b50600360009054906101000a900473ffffffffffffffffffffffffffffffffffffffff1673ffffffffffffffffffffffffffffffffffffffff166370a08231306040518263ffffffff1660e01b815260040161030a91906111cf565b60206040518083038186803b15801561032257600080fd5b505afa158015610336573d6000803e3d6000fd5b505050506040513d601f19601f8201168201806040525081019061035a9190611051565b60648261036791906113db565b146103a7576040517f08c379a000000000000000000000000000000000000000000000000000000000815260040161039e906112f9565b60405180910390fd5b600160009054906101000a900473ffffffffffffffffffffffffffffffffffffffff1673ffffffffffffffffffffffffffffffffffffffff1663fb8e04c8338a8a8a8a8a8a8a6040518963ffffffff1660e01b8152600401610410989796959493929190611258565b600060405180830381600087803b15801561042a57600080fd5b505af115801561043e573d6000803e3d6000fd5b505050505050505050505050565b60006104566109c9565b73ffffffffffffffffffffffffffffffffffffffff16610474610602565b73ffffffffffffffffffffffffffffffffffffffff16146104ca576040517f08c379a00000000000000000000000000000000000000000000000000000000081526004016104c190611379565b60405180910390fd5b600260009054906101000a900473ffffffffffffffffffffffffffffffffffffffff1673ffffffffffffffffffffffffffffffffffffffff166370a08231336040518263ffffffff1660e01b815260040161052591906111cf565b60206040518083038186803b15801561053d57600080fd5b505afa158015610551573d6000803e3d6000fd5b505050506040513d601f19601f820116820180604052508101906105759190611051565b905090565b6105826109c9565b73ffffffffffffffffffffffffffffffffffffffff166105a0610602565b73ffffffffffffffffffffffffffffffffffffffff16146105f6576040517f08c379a00000000000000000000000000000000000000000000000000000000081526004016105ed90611379565b60405180910390fd5b61060060006109d1565b565b60008060009054906101000a900473ffffffffffffffffffffffffffffffffffffffff16905090565b6106358282610a95565b5050565b6106416109c9565b73ffffffffffffffffffffffffffffffffffffffff1661065f610602565b73ffffffffffffffffffffffffffffffffffffffff16146106b5576040517f08c379a00000000000000000000000000000000000000000000000000000000081526004016106ac90611379565b60405180910390fd5b600260009054906101000a900473ffffffffffffffffffffffffffffffffffffffff1673ffffffffffffffffffffffffffffffffffffffff1663a9059cbb33600260009054906101000a900473ffffffffffffffffffffffffffffffffffffffff1673ffffffffffffffffffffffffffffffffffffffff166370a08231336040518263ffffffff1660e01b815260040161074f91906111cf565b60206040518083038186803b15801561076757600080fd5b505afa15801561077b573d6000803e3d6000fd5b505050506040513d601f19601f8201168201806040525081019061079f9190611051565b6040518363ffffffff1660e01b81526004016107bc9291906112d0565b602060405180830381600087803b1580156107d657600080fd5b505af11580156107ea573d6000803e3d6000fd5b505050506040513d601f19601f8201168201806040525081019061080e9190610f75565b50565b6108196109c9565b73ffffffffffffffffffffffffffffffffffffffff16610837610602565b73ffffffffffffffffffffffffffffffffffffffff161461088d576040517f08c379a000000000000000000000000000000000000000000000000000000000815260040161088490611379565b60405180910390fd5b600073ffffffffffffffffffffffffffffffffffffffff168173ffffffffffffffffffffffffffffffffffffffff1614156108fd576040517f08c379a00000000000000000000000000000000000000000000000000000000081526004016108f490611319565b60405180910390fd5b610906816109d1565b50565b6109116109c9565b73ffffffffffffffffffffffffffffffffffffffff1661092f610602565b73ffffffffffffffffffffffffffffffffffffffff1614610985576040517f08c379a000000000000000000000000000000000000000000000000000000000815260040161097c90611379565b60405180910390fd5b80600160006101000a81548173ffffffffffffffffffffffffffffffffffffffff021916908373ffffffffffffffffffffffffffffffffffffffff16021790555050565b600033905090565b60008060009054906101000a900473ffffffffffffffffffffffffffffffffffffffff169050816000806101000a81548173ffffffffffffffffffffffffffffffffffffffff021916908373ffffffffffffffffffffffffffffffffffffffff1602179055508173ffffffffffffffffffffffffffffffffffffffff168173ffffffffffffffffffffffffffffffffffffffff167f8be0079c531659141344cd1fd0a4f28419497f9722a3daafe3b4186f6b6457e060405160405180910390a35050565b6000600260009054906101000a900473ffffffffffffffffffffffffffffffffffffffff1673ffffffffffffffffffffffffffffffffffffffff166370a08231306040518263ffffffff1660e01b8152600401610af291906111cf565b60206040518083038186803b158015610b0a57600080fd5b505afa158015610b1e573d6000803e3d6000fd5b505050506040513d601f19601f82011682018060405250810190610b429190611051565b9050600260009054906101000a900473ffffffffffffffffffffffffffffffffffffffff1673ffffffffffffffffffffffffffffffffffffffff166323b872dd8430856040518463ffffffff1660e01b8152600401610ba393929190611221565b602060405180830381600087803b158015610bbd57600080fd5b505af1158015610bd1573d6000803e3d6000fd5b505050506040513d601f19601f82011682018060405250810190610bf59190610f75565b50600260009054906101000a900473ffffffffffffffffffffffffffffffffffffffff1673ffffffffffffffffffffffffffffffffffffffff166370a08231306040518263ffffffff1660e01b8152600401610c5191906111cf565b60206040518083038186803b158015610c6957600080fd5b505afa158015610c7d573d6000803e3d6000fd5b505050506040513d601f19601f82011682018060405250810190610ca19190611051565b8282610cad91906113db565b14610ced576040517f08c379a0000000000000000000000000000000000000000000000000000000008152600401610ce490611339565b60405180910390fd5b6000600360009054906101000a900473ffffffffffffffffffffffffffffffffffffffff1673ffffffffffffffffffffffffffffffffffffffff168460045485610d379190611431565b604051602401610d489291906112d0565b6040516020818303038152906040527f83681d37000000000000000000000000000000000000000000000000000000007bffffffffffffffffffffffffffffffffffffffffffffffffffffffff19166020820180517bffffffffffffffffffffffffffffffffffffffffffffffffffffffff8381831617835250505050604051610dd291906111b8565b6000604051808303816000865af19150503d8060008114610e0f576040519150601f19603f3d011682016040523d82523d6000602084013e610e14565b606091505b5050905080610e58576040517f08c379a0000000000000000000000000000000000000000000000000000000008152600401610e4f90611359565b60405180910390fd5b50505050565b600081359050610e6d81611673565b92915050565b600081519050610e828161168a565b92915050565b60008083601f840112610e9e57610e9d61155b565b5b8235905067ffffffffffffffff811115610ebb57610eba611556565b5b602083019150836001820283011115610ed757610ed6611560565b5b9250929050565b600081359050610eed816116a1565b92915050565b600081519050610f02816116a1565b92915050565b600060208284031215610f1e57610f1d61156a565b5b6000610f2c84828501610e5e565b91505092915050565b60008060408385031215610f4c57610f4b61156a565b5b6000610f5a85828601610e5e565b9250506020610f6b85828601610ede565b9150509250929050565b600060208284031215610f8b57610f8a61156a565b5b6000610f9984828501610e73565b91505092915050565b600080600080600080600060c0888a031215610fc157610fc061156a565b5b600088013567ffffffffffffffff811115610fdf57610fde611565565b5b610feb8a828b01610e88565b97509750506020610ffe8a828b01610ede565b955050604061100f8a828b01610ede565b94505060606110208a828b01610ede565b93505060806110318a828b01610ede565b92505060a06110428a828b01610ede565b91505092959891949750929550565b6000602082840312156110675761106661156a565b5b600061107584828501610ef3565b91505092915050565b6110878161148b565b82525050565b6000611098826113b4565b6110a281856113bf565b93506110b28185602086016114f4565b80840191505092915050565b6110c7816114d3565b82525050565b60006110d983856113ca565b93506110e68385846114e5565b6110ef8361156f565b840190509392505050565b60006111076018836113ca565b915061111282611580565b602082019050919050565b600061112a6026836113ca565b9150611135826115a9565b604082019050919050565b600061114d6012836113ca565b9150611158826115f8565b602082019050919050565b6000611170600a836113ca565b915061117b82611621565b602082019050919050565b60006111936020836113ca565b915061119e8261164a565b602082019050919050565b6111b2816114c9565b82525050565b60006111c4828461108d565b915081905092915050565b60006020820190506111e4600083018461107e565b92915050565b60006060820190506111ff600083018661107e565b61120c602083018561107e565b61121960408301846110be565b949350505050565b6000606082019050611236600083018661107e565b611243602083018561107e565b61125060408301846111a9565b949350505050565b600060e08201905061126d600083018b61107e565b818103602083015261128081898b6110cd565b905061128f60408301886111a9565b61129c60608301876111a9565b6112a960808301866111a9565b6112b660a08301856111a9565b6112c360c08301846111a9565b9998505050505050505050565b60006040820190506112e5600083018561107e565b6112f260208301846111a9565b9392505050565b60006020820190508181036000830152611312816110fa565b9050919050565b600060208201905081810360008301526113328161111d565b9050919050565b6000602082019050818103600083015261135281611140565b9050919050565b6000602082019050818103600083015261137281611163565b9050919050565b6000602082019050818103600083015261139281611186565b9050919050565b60006020820190506113ae60008301846111a9565b92915050565b600081519050919050565b600081905092915050565b600082825260208201905092915050565b60006113e6826114c9565b91506113f1836114c9565b9250827fffffffffffffffffffffffffffffffffffffffffffffffffffffffffffffffff0382111561142657611425611527565b5b828201905092915050565b600061143c826114c9565b9150611447836114c9565b9250817fffffffffffffffffffffffffffffffffffffffffffffffffffffffffffffffff04831182151516156114805761147f611527565b5b828202905092915050565b6000611496826114a9565b9050919050565b60008115159050919050565b600073ffffffffffffffffffffffffffffffffffffffff82169050919050565b6000819050919050565b60006114de826114c9565b9050919050565b82818337600083830152505050565b60005b838110156115125780820151818401526020810190506114f7565b83811115611521576000848401525b50505050565b7f4e487b7100000000000000000000000000000000000000000000000000000000600052601160045260246000fd5b600080fd5b600080fd5b600080fd5b600080fd5b600080fd5b6000601f19601f8301169050919050565b7f73656e64696e67205374696b69546f6b656e206661696c6c0000000000000000600082015250565b7f4f776e61626c653a206e6577206f776e657220697320746865207a65726f206160008201527f6464726573730000000000000000000000000000000000000000000000000000602082015250565b7f73656e64696e672055736463206661696c6c0000000000000000000000000000600082015250565b7f6d696e74204661696c6c00000000000000000000000000000000000000000000600082015250565b7f4f776e61626c653a2063616c6c6572206973206e6f7420746865206f776e6572600082015250565b61167c8161148b565b811461168757600080fd5b50565b6116938161149d565b811461169e57600080fd5b50565b6116aa816114c9565b81146116b557600080fd5b5056fea2646970667358221220ffa5e2642c2b17435bb9003a75415bba6e3877b560af0946525b5b49fd3b3cff64736f6c63430008070033",
  "immutableReferences": {},
  "source": "// SPDX-License-Identifier: Leluk911\npragma solidity 0.8.7;\n\nimport \"../node_modules/@openzeppelin/contracts/token/ERC20/IERC20.sol\";\nimport \"../node_modules/@openzeppelin/contracts/token/ERC721/IERC721.sol\";\nimport \"../contracts/interface/INewStikiNft.sol\";\nimport \"../contracts/stikiToken.sol\";\nimport \"../node_modules/@openzeppelin/contracts/access/Ownable.sol\";\n\ncontract MintContract is Ownable {\n    IStikiNFT StikiNft;\n    IERC20 usdc;\n    IERC20 StikiToken;\n    uint256 priceStiki;\n\n    constructor(\n        address _usdc,\n        address _StikiToken,\n        uint256 _priceStiki\n    ) {\n        usdc = IERC20(_usdc);\n        priceStiki = _priceStiki;\n        StikiToken = IERC20(_StikiToken);\n    }\n\n    function setAddrStikiNft(address _StikiNft) external onlyOwner {\n        StikiNft = IStikiNFT(_StikiNft);\n    }\n\n    function MintStiki(\n        string calldata _name,\n        uint256 _lifepoint,\n        uint256 _power,\n        uint256 _dex,\n        uint256 _stamina,\n        uint256 _speed\n    ) public {\n        uint256 inBalance = StikiToken.balanceOf(address(this));\n        StikiToken.transferFrom(msg.sender, address(this), 100);\n        require(\n            inBalance + 100 == StikiToken.balanceOf(address(this)),\n            \"sending StikiToken faill\"\n        );\n        StikiNft.mint(\n            msg.sender,\n            _name,\n            _lifepoint,\n            _power,\n            _dex,\n            _stamina,\n            _speed\n        );\n    }\n\n    function BuyStikiToken(address _to, uint256 _amount) external {\n        _BuyStikiToken(_to, _amount);\n    }\n\n    function _BuyStikiToken(address _to, uint256 _amount) internal {\n        uint256 inBalance = usdc.balanceOf(address(this));\n        usdc.transferFrom(_to, address(this), _amount);\n        require(\n            inBalance + _amount == usdc.balanceOf(address(this)),\n            \"sending Usdc faill\"\n        );\n\n        (bool success, ) = address(StikiToken).call(\n            abi.encodeWithSignature(\n                \"ContractMint(address,uint256)\",\n                _to,\n                _amount * priceStiki\n            )\n        );\n\n        require(success, \"mint Faill\");\n    }\n\n    function withdrawalUsdc() external onlyOwner {\n        usdc.transfer(msg.sender, usdc.balanceOf(msg.sender));\n    }\n\n    function balanceOfUsdc() external view onlyOwner returns (uint256) {\n        return usdc.balanceOf(msg.sender);\n    }\n}\n",
  "sourcePath": "/Users/lucianodinoia/Desktop/moralis Academy/Build an NFT Marketplace/Stiki war react-moralis/contracts/MintContract.sol",
  "compiler": {
    "name": "solc",
    "version": "0.8.7+commit.e28d00a7.Emscripten.clang"
  },
  "schemaVersion": "3.4.6",
  "updatedAt": "2022-05-13T20:09:41.240Z",
  "networkType": "ethereum",
  "devdoc": {
    "kind": "dev",
    "methods": {
      "owner()": {
        "details": "Returns the address of the current owner."
      },
      "renounceOwnership()": {
        "details": "Leaves the contract without owner. It will not be possible to call `onlyOwner` functions anymore. Can only be called by the current owner. NOTE: Renouncing ownership will leave the contract without an owner, thereby removing any functionality that is only available to the owner."
      },
      "transferOwnership(address)": {
        "details": "Transfers ownership of the contract to a new account (`newOwner`). Can only be called by the current owner."
      }
    },
    "version": 1
  },
  "userdoc": {
    "kind": "user",
    "methods": {},
    "version": 1
  }
}