{
  "contractName": "NewStikiNFT",
  "abi": [
    {
      "inputs": [
        {
          "internalType": "address",
          "name": "_MinterContract",
          "type": "address"
        }
      ],
      "stateMutability": "nonpayable",
      "type": "constructor"
    },
    {
      "anonymous": false,
      "inputs": [
        {
          "indexed": true,
          "internalType": "address",
          "name": "owner",
          "type": "address"
        },
        {
          "indexed": true,
          "internalType": "address",
          "name": "approved",
          "type": "address"
        },
        {
          "indexed": true,
          "internalType": "uint256",
          "name": "tokenId",
          "type": "uint256"
        }
      ],
      "name": "Approval",
      "type": "event"
    },
    {
      "anonymous": false,
      "inputs": [
        {
          "indexed": true,
          "internalType": "address",
          "name": "owner",
          "type": "address"
        },
        {
          "indexed": true,
          "internalType": "address",
          "name": "operator",
          "type": "address"
        },
        {
          "indexed": false,
          "internalType": "bool",
          "name": "approved",
          "type": "bool"
        }
      ],
      "name": "ApprovalForAll",
      "type": "event"
    },
    {
      "anonymous": false,
      "inputs": [
        {
          "indexed": true,
          "internalType": "address",
          "name": "previousOwner",
          "type": "address"
        },
        {
          "indexed": true,
          "internalType": "address",
          "name": "newOwner",
          "type": "address"
        }
      ],
      "name": "OwnershipTransferred",
      "type": "event"
    },
    {
      "anonymous": false,
      "inputs": [
        {
          "indexed": false,
          "internalType": "address",
          "name": "account",
          "type": "address"
        }
      ],
      "name": "Paused",
      "type": "event"
    },
    {
      "anonymous": false,
      "inputs": [
        {
          "indexed": true,
          "internalType": "address",
          "name": "from",
          "type": "address"
        },
        {
          "indexed": true,
          "internalType": "address",
          "name": "to",
          "type": "address"
        },
        {
          "indexed": true,
          "internalType": "uint256",
          "name": "tokenId",
          "type": "uint256"
        }
      ],
      "name": "Transfer",
      "type": "event"
    },
    {
      "anonymous": false,
      "inputs": [
        {
          "indexed": false,
          "internalType": "address",
          "name": "account",
          "type": "address"
        }
      ],
      "name": "Unpaused",
      "type": "event"
    },
    {
      "inputs": [
        {
          "internalType": "address",
          "name": "to",
          "type": "address"
        },
        {
          "internalType": "uint256",
          "name": "tokenId",
          "type": "uint256"
        }
      ],
      "name": "approve",
      "outputs": [],
      "stateMutability": "nonpayable",
      "type": "function"
    },
    {
      "inputs": [
        {
          "internalType": "address",
          "name": "owner",
          "type": "address"
        }
      ],
      "name": "balanceOf",
      "outputs": [
        {
          "internalType": "uint256",
          "name": "",
          "type": "uint256"
        }
      ],
      "stateMutability": "view",
      "type": "function",
      "constant": true
    },
    {
      "inputs": [
        {
          "internalType": "uint256",
          "name": "tokenId",
          "type": "uint256"
        }
      ],
      "name": "getApproved",
      "outputs": [
        {
          "internalType": "address",
          "name": "",
          "type": "address"
        }
      ],
      "stateMutability": "view",
      "type": "function",
      "constant": true
    },
    {
      "inputs": [
        {
          "internalType": "address",
          "name": "owner",
          "type": "address"
        },
        {
          "internalType": "address",
          "name": "operator",
          "type": "address"
        }
      ],
      "name": "isApprovedForAll",
      "outputs": [
        {
          "internalType": "bool",
          "name": "",
          "type": "bool"
        }
      ],
      "stateMutability": "view",
      "type": "function",
      "constant": true
    },
    {
      "inputs": [],
      "name": "name",
      "outputs": [
        {
          "internalType": "string",
          "name": "",
          "type": "string"
        }
      ],
      "stateMutability": "view",
      "type": "function",
      "constant": true
    },
    {
      "inputs": [],
      "name": "owner",
      "outputs": [
        {
          "internalType": "address",
          "name": "",
          "type": "address"
        }
      ],
      "stateMutability": "view",
      "type": "function",
      "constant": true
    },
    {
      "inputs": [
        {
          "internalType": "uint256",
          "name": "tokenId",
          "type": "uint256"
        }
      ],
      "name": "ownerOf",
      "outputs": [
        {
          "internalType": "address",
          "name": "",
          "type": "address"
        }
      ],
      "stateMutability": "view",
      "type": "function",
      "constant": true
    },
    {
      "inputs": [],
      "name": "paused",
      "outputs": [
        {
          "internalType": "bool",
          "name": "",
          "type": "bool"
        }
      ],
      "stateMutability": "view",
      "type": "function",
      "constant": true
    },
    {
      "inputs": [
        {
          "internalType": "address",
          "name": "",
          "type": "address"
        }
      ],
      "name": "rankingPoint",
      "outputs": [
        {
          "internalType": "int256",
          "name": "",
          "type": "int256"
        }
      ],
      "stateMutability": "view",
      "type": "function",
      "constant": true
    },
    {
      "inputs": [],
      "name": "renounceOwnership",
      "outputs": [],
      "stateMutability": "nonpayable",
      "type": "function"
    },
    {
      "inputs": [
        {
          "internalType": "address",
          "name": "from",
          "type": "address"
        },
        {
          "internalType": "address",
          "name": "to",
          "type": "address"
        },
        {
          "internalType": "uint256",
          "name": "tokenId",
          "type": "uint256"
        }
      ],
      "name": "safeTransferFrom",
      "outputs": [],
      "stateMutability": "nonpayable",
      "type": "function"
    },
    {
      "inputs": [
        {
          "internalType": "address",
          "name": "from",
          "type": "address"
        },
        {
          "internalType": "address",
          "name": "to",
          "type": "address"
        },
        {
          "internalType": "uint256",
          "name": "tokenId",
          "type": "uint256"
        },
        {
          "internalType": "bytes",
          "name": "_data",
          "type": "bytes"
        }
      ],
      "name": "safeTransferFrom",
      "outputs": [],
      "stateMutability": "nonpayable",
      "type": "function"
    },
    {
      "inputs": [
        {
          "internalType": "address",
          "name": "operator",
          "type": "address"
        },
        {
          "internalType": "bool",
          "name": "approved",
          "type": "bool"
        }
      ],
      "name": "setApprovalForAll",
      "outputs": [],
      "stateMutability": "nonpayable",
      "type": "function"
    },
    {
      "inputs": [
        {
          "internalType": "uint256",
          "name": "",
          "type": "uint256"
        }
      ],
      "name": "stikies",
      "outputs": [
        {
          "internalType": "uint256",
          "name": "Id",
          "type": "uint256"
        },
        {
          "internalType": "string",
          "name": "name",
          "type": "string"
        },
        {
          "internalType": "uint256",
          "name": "level",
          "type": "uint256"
        },
        {
          "internalType": "uint256",
          "name": "lifepoint",
          "type": "uint256"
        },
        {
          "internalType": "uint256",
          "name": "power",
          "type": "uint256"
        },
        {
          "internalType": "uint256",
          "name": "dex",
          "type": "uint256"
        },
        {
          "internalType": "uint256",
          "name": "stamina",
          "type": "uint256"
        },
        {
          "internalType": "uint256",
          "name": "speed",
          "type": "uint256"
        },
        {
          "internalType": "uint256",
          "name": "poinStat",
          "type": "uint256"
        }
      ],
      "stateMutability": "view",
      "type": "function",
      "constant": true
    },
    {
      "inputs": [
        {
          "internalType": "bytes4",
          "name": "interfaceId",
          "type": "bytes4"
        }
      ],
      "name": "supportsInterface",
      "outputs": [
        {
          "internalType": "bool",
          "name": "",
          "type": "bool"
        }
      ],
      "stateMutability": "view",
      "type": "function",
      "constant": true
    },
    {
      "inputs": [],
      "name": "symbol",
      "outputs": [
        {
          "internalType": "string",
          "name": "",
          "type": "string"
        }
      ],
      "stateMutability": "view",
      "type": "function",
      "constant": true
    },
    {
      "inputs": [
        {
          "internalType": "uint256",
          "name": "tokenId",
          "type": "uint256"
        }
      ],
      "name": "tokenURI",
      "outputs": [
        {
          "internalType": "string",
          "name": "",
          "type": "string"
        }
      ],
      "stateMutability": "view",
      "type": "function",
      "constant": true
    },
    {
      "inputs": [
        {
          "internalType": "address",
          "name": "newOwner",
          "type": "address"
        }
      ],
      "name": "transferOwnership",
      "outputs": [],
      "stateMutability": "nonpayable",
      "type": "function"
    },
    {
      "inputs": [
        {
          "internalType": "address",
          "name": "to",
          "type": "address"
        },
        {
          "internalType": "string",
          "name": "_name",
          "type": "string"
        },
        {
          "internalType": "uint256",
          "name": "_lifepoint",
          "type": "uint256"
        },
        {
          "internalType": "uint256",
          "name": "_power",
          "type": "uint256"
        },
        {
          "internalType": "uint256",
          "name": "_dex",
          "type": "uint256"
        },
        {
          "internalType": "uint256",
          "name": "_stamina",
          "type": "uint256"
        },
        {
          "internalType": "uint256",
          "name": "_speed",
          "type": "uint256"
        }
      ],
      "name": "mint",
      "outputs": [],
      "stateMutability": "nonpayable",
      "type": "function"
    },
    {
      "inputs": [
        {
          "internalType": "uint256",
          "name": "_tokenId",
          "type": "uint256"
        },
        {
          "internalType": "uint256",
          "name": "_lifepoint",
          "type": "uint256"
        },
        {
          "internalType": "uint256",
          "name": "_power",
          "type": "uint256"
        },
        {
          "internalType": "uint256",
          "name": "_dex",
          "type": "uint256"
        },
        {
          "internalType": "uint256",
          "name": "_stamina",
          "type": "uint256"
        },
        {
          "internalType": "uint256",
          "name": "_speed",
          "type": "uint256"
        }
      ],
      "name": "setStat",
      "outputs": [],
      "stateMutability": "nonpayable",
      "type": "function"
    },
    {
      "inputs": [
        {
          "internalType": "address",
          "name": "_owner",
          "type": "address"
        }
      ],
      "name": "viewAllNftsUser",
      "outputs": [
        {
          "internalType": "uint256[]",
          "name": "",
          "type": "uint256[]"
        }
      ],
      "stateMutability": "view",
      "type": "function",
      "constant": true
    },
    {
      "inputs": [
        {
          "internalType": "uint256",
          "name": "_tokenId",
          "type": "uint256"
        }
      ],
      "name": "viewStat",
      "outputs": [
        {
          "components": [
            {
              "internalType": "uint256",
              "name": "Id",
              "type": "uint256"
            },
            {
              "internalType": "string",
              "name": "name",
              "type": "string"
            },
            {
              "internalType": "uint256",
              "name": "level",
              "type": "uint256"
            },
            {
              "internalType": "uint256",
              "name": "lifepoint",
              "type": "uint256"
            },
            {
              "internalType": "uint256",
              "name": "power",
              "type": "uint256"
            },
            {
              "internalType": "uint256",
              "name": "dex",
              "type": "uint256"
            },
            {
              "internalType": "uint256",
              "name": "stamina",
              "type": "uint256"
            },
            {
              "internalType": "uint256",
              "name": "speed",
              "type": "uint256"
            },
            {
              "internalType": "uint256",
              "name": "poinStat",
              "type": "uint256"
            }
          ],
          "internalType": "struct NewStikiNFT.StikiWarrior",
          "name": "",
          "type": "tuple"
        }
      ],
      "stateMutability": "view",
      "type": "function",
      "constant": true
    },
    {
      "inputs": [
        {
          "internalType": "address",
          "name": "from",
          "type": "address"
        },
        {
          "internalType": "address",
          "name": "to",
          "type": "address"
        },
        {
          "internalType": "uint256",
          "name": "tokenId",
          "type": "uint256"
        }
      ],
      "name": "transferFrom",
      "outputs": [],
      "stateMutability": "nonpayable",
      "type": "function"
    },
    {
      "inputs": [
        {
          "internalType": "uint256",
          "name": "tokenId",
          "type": "uint256"
        }
      ],
      "name": "burn",
      "outputs": [],
      "stateMutability": "nonpayable",
      "type": "function"
    },
    {
      "inputs": [],
      "name": "viewCurrentID",
      "outputs": [
        {
          "internalType": "uint256",
          "name": "id",
          "type": "uint256"
        }
      ],
      "stateMutability": "view",
      "type": "function",
      "constant": true
    }
  ],
  "bytecode": "0x60806040523480156200001157600080fd5b5060405162004601380380620046018339818101604052810190620000379190620002ef565b6040518060400160405280600581526020017f5374696b690000000000000000000000000000000000000000000000000000008152506040518060400160405280600381526020017f53544b00000000000000000000000000000000000000000000000000000000008152508160009080519060200190620000bb92919062000228565b508060019080519060200190620000d492919062000228565b505050620000f7620000eb6200015a60201b60201c565b6200016260201b60201c565b6000600660146101000a81548160ff02191690831515021790555080600f60006101000a81548173ffffffffffffffffffffffffffffffffffffffff021916908373ffffffffffffffffffffffffffffffffffffffff16021790555050620003d9565b600033905090565b6000600660009054906101000a900473ffffffffffffffffffffffffffffffffffffffff16905081600660006101000a81548173ffffffffffffffffffffffffffffffffffffffff021916908373ffffffffffffffffffffffffffffffffffffffff1602179055508173ffffffffffffffffffffffffffffffffffffffff168173ffffffffffffffffffffffffffffffffffffffff167f8be0079c531659141344cd1fd0a4f28419497f9722a3daafe3b4186f6b6457e060405160405180910390a35050565b828054620002369062000355565b90600052602060002090601f0160209004810192826200025a5760008555620002a6565b82601f106200027557805160ff1916838001178555620002a6565b82800160010185558215620002a6579182015b82811115620002a557825182559160200191906001019062000288565b5b509050620002b59190620002b9565b5090565b5b80821115620002d4576000816000905550600101620002ba565b5090565b600081519050620002e981620003bf565b92915050565b600060208284031215620003085762000307620003ba565b5b60006200031884828501620002d8565b91505092915050565b60006200032e8262000335565b9050919050565b600073ffffffffffffffffffffffffffffffffffffffff82169050919050565b600060028204905060018216806200036e57607f821691505b602082108114156200038557620003846200038b565b5b50919050565b7f4e487b7100000000000000000000000000000000000000000000000000000000600052602260045260246000fd5b600080fd5b620003ca8162000321565b8114620003d657600080fd5b50565b61421880620003e96000396000f3fe608060405234801561001057600080fd5b50600436106101735760003560e01c80636352211e116100de578063b88d4fde11610097578063e985e9c511610071578063e985e9c514610464578063edc2de7914610494578063f2fde38b146104c4578063fb8e04c8146104e057610173565b8063b88d4fde146103e8578063c7b23a8514610404578063c87b56dd1461043457610173565b80636352211e1461032657806370a0823114610356578063715018a6146103865780638da5cb5b1461039057806395d89b41146103ae578063a22cb465146103cc57610173565b806323b872dd1161013057806323b872dd1461025e578063415166d91461027a57806342842e0e1461029857806342966c68146102b45780634344db7b146102d05780635c975abb1461030857610173565b806301ffc9a71461017857806306fdde03146101a8578063081812fc146101c6578063095ea7b3146101f65780631d2b0d33146102125780631ecae6571461022e575b600080fd5b610192600480360381019061018d9190612c80565b6104fc565b60405161019f91906133a5565b60405180910390f35b6101b06105de565b6040516101bd91906133db565b60405180910390f35b6101e060048036038101906101db9190612cda565b610670565b6040516101ed919061331c565b60405180910390f35b610210600480360381019061020b9190612c40565b6106f5565b005b61022c60048036038101906102279190612d07565b61080d565b005b610248600480360381019061024391906129fb565b610899565b60405161025591906133c0565b60405180910390f35b61027860048036038101906102739190612a68565b6108b1565b005b610282610af4565b60405161028f91906136df565b60405180910390f35b6102b260048036038101906102ad9190612a68565b610b05565b005b6102ce60048036038101906102c99190612cda565b610b25565b005b6102ea60048036038101906102e59190612cda565b610bc8565b6040516102ff999897969594939291906136fa565b60405180910390f35b610310610cae565b60405161031d91906133a5565b60405180910390f35b610340600480360381019061033b9190612cda565b610cc5565b60405161034d919061331c565b60405180910390f35b610370600480360381019061036b91906129fb565b610d77565b60405161037d91906136df565b60405180910390f35b61038e610e2f565b005b610398610eb7565b6040516103a5919061331c565b60405180910390f35b6103b6610ee1565b6040516103c391906133db565b60405180910390f35b6103e660048036038101906103e19190612b3e565b610f73565b005b61040260048036038101906103fd9190612abb565b610f89565b005b61041e60048036038101906104199190612cda565b610feb565b60405161042b91906136bd565b60405180910390f35b61044e60048036038101906104499190612cda565b61110a565b60405161045b91906133db565b60405180910390f35b61047e60048036038101906104799190612a28565b6111b1565b60405161048b91906133a5565b60405180910390f35b6104ae60048036038101906104a991906129fb565b611245565b6040516104bb9190613383565b60405180910390f35b6104de60048036038101906104d991906129fb565b6112dc565b005b6104fa60048036038101906104f59190612b7e565b6113d4565b005b60007f80ac58cd000000000000000000000000000000000000000000000000000000007bffffffffffffffffffffffffffffffffffffffffffffffffffffffff1916827bffffffffffffffffffffffffffffffffffffffffffffffffffffffff191614806105c757507f5b5e139f000000000000000000000000000000000000000000000000000000007bffffffffffffffffffffffffffffffffffffffffffffffffffffffff1916827bffffffffffffffffffffffffffffffffffffffffffffffffffffffff1916145b806105d757506105d682611694565b5b9050919050565b6060600080546105ed906139ec565b80601f0160208091040260200160405190810160405280929190818152602001828054610619906139ec565b80156106665780601f1061063b57610100808354040283529160200191610666565b820191906000526020600020905b81548152906001019060200180831161064957829003601f168201915b5050505050905090565b600061067b826116fe565b6106ba576040517f08c379a00000000000000000000000000000000000000000000000000000000081526004016106b1906135bd565b60405180910390fd5b6004600083815260200190815260200160002060009054906101000a900473ffffffffffffffffffffffffffffffffffffffff169050919050565b600061070082610cc5565b90508073ffffffffffffffffffffffffffffffffffffffff168373ffffffffffffffffffffffffffffffffffffffff161415610771576040517f08c379a00000000000000000000000000000000000000000000000000000000081526004016107689061365d565b60405180910390fd5b8073ffffffffffffffffffffffffffffffffffffffff1661079061176a565b73ffffffffffffffffffffffffffffffffffffffff1614806107bf57506107be816107b961176a565b6111b1565b5b6107fe576040517f08c379a00000000000000000000000000000000000000000000000000000000081526004016107f59061353d565b60405180910390fd5b6108088383611772565b505050565b61081686610cc5565b73ffffffffffffffffffffffffffffffffffffffff163373ffffffffffffffffffffffffffffffffffffffff1614610883576040517f08c379a000000000000000000000000000000000000000000000000000000000815260040161087a9061361d565b60405180910390fd5b61089186868686868661182b565b505050505050565b600d6020528060005260406000206000915090505481565b6108c26108bc61176a565b82611a9f565b610901576040517f08c379a00000000000000000000000000000000000000000000000000000000081526004016108f89061369d565b60405180910390fd5b600061090d8483611b7d565b9050600c60008573ffffffffffffffffffffffffffffffffffffffff1673ffffffffffffffffffffffffffffffffffffffff1681526020019081526020016000206001600c60008773ffffffffffffffffffffffffffffffffffffffff1673ffffffffffffffffffffffffffffffffffffffff1681526020019081526020016000208054905061099d91906138f8565b815481106109ae576109ad613b85565b5b9060005260206000200154600c60008673ffffffffffffffffffffffffffffffffffffffff1673ffffffffffffffffffffffffffffffffffffffff1681526020019081526020016000208281548110610a0a57610a09613b85565b5b9060005260206000200181905550600c60008573ffffffffffffffffffffffffffffffffffffffff1673ffffffffffffffffffffffffffffffffffffffff168152602001908152602001600020805480610a6757610a66613b56565b5b60019003818190600052602060002001600090559055610a88848484611c90565b600c60008473ffffffffffffffffffffffffffffffffffffffff1673ffffffffffffffffffffffffffffffffffffffff16815260200190815260200160002082908060018154018082558091505060019003906000526020600020016000909190919091505550505050565b6000610b006007611ef7565b905090565b610b2083838360405180602001604052806000815250610f89565b505050565b610b2d61176a565b73ffffffffffffffffffffffffffffffffffffffff16600f60009054906101000a900473ffffffffffffffffffffffffffffffffffffffff1673ffffffffffffffffffffffffffffffffffffffff1614610bbc576040517f08c379a0000000000000000000000000000000000000000000000000000000008152600401610bb3906133fd565b60405180910390fd5b610bc581611f05565b50565b600e8181548110610bd857600080fd5b9060005260206000209060090201600091509050806000015490806001018054610c01906139ec565b80601f0160208091040260200160405190810160405280929190818152602001828054610c2d906139ec565b8015610c7a5780601f10610c4f57610100808354040283529160200191610c7a565b820191906000526020600020905b815481529060010190602001808311610c5d57829003601f168201915b5050505050908060020154908060030154908060040154908060050154908060060154908060070154908060080154905089565b6000600660149054906101000a900460ff16905090565b6000806002600084815260200190815260200160002060009054906101000a900473ffffffffffffffffffffffffffffffffffffffff169050600073ffffffffffffffffffffffffffffffffffffffff168173ffffffffffffffffffffffffffffffffffffffff161415610d6e576040517f08c379a0000000000000000000000000000000000000000000000000000000008152600401610d659061357d565b60405180910390fd5b80915050919050565b60008073ffffffffffffffffffffffffffffffffffffffff168273ffffffffffffffffffffffffffffffffffffffff161415610de8576040517f08c379a0000000000000000000000000000000000000000000000000000000008152600401610ddf9061355d565b60405180910390fd5b600360008373ffffffffffffffffffffffffffffffffffffffff1673ffffffffffffffffffffffffffffffffffffffff168152602001908152602001600020549050919050565b610e3761176a565b73ffffffffffffffffffffffffffffffffffffffff16610e55610eb7565b73ffffffffffffffffffffffffffffffffffffffff1614610eab576040517f08c379a0000000000000000000000000000000000000000000000000000000008152600401610ea2906135dd565b60405180910390fd5b610eb56000612022565b565b6000600660009054906101000a900473ffffffffffffffffffffffffffffffffffffffff16905090565b606060018054610ef0906139ec565b80601f0160208091040260200160405190810160405280929190818152602001828054610f1c906139ec565b8015610f695780601f10610f3e57610100808354040283529160200191610f69565b820191906000526020600020905b815481529060010190602001808311610f4c57829003601f168201915b5050505050905090565b610f85610f7e61176a565b83836120e8565b5050565b610f9a610f9461176a565b83611a9f565b610fd9576040517f08c379a0000000000000000000000000000000000000000000000000000000008152600401610fd09061369d565b60405180910390fd5b610fe584848484612255565b50505050565b610ff36127dd565b600e828154811061100757611006613b85565b5b9060005260206000209060090201604051806101200160405290816000820154815260200160018201805461103b906139ec565b80601f0160208091040260200160405190810160405280929190818152602001828054611067906139ec565b80156110b45780601f10611089576101008083540402835291602001916110b4565b820191906000526020600020905b81548152906001019060200180831161109757829003601f168201915b505050505081526020016002820154815260200160038201548152602001600482015481526020016005820154815260200160068201548152602001600782015481526020016008820154815250509050919050565b6060611115826116fe565b611154576040517f08c379a000000000000000000000000000000000000000000000000000000000815260040161114b906135fd565b60405180910390fd5b600061115e6122b1565b9050600081511161117e57604051806020016040528060008152506111a9565b80611188846122c8565b6040516020016111999291906132f8565b6040516020818303038152906040525b915050919050565b6000600560008473ffffffffffffffffffffffffffffffffffffffff1673ffffffffffffffffffffffffffffffffffffffff16815260200190815260200160002060008373ffffffffffffffffffffffffffffffffffffffff1673ffffffffffffffffffffffffffffffffffffffff16815260200190815260200160002060009054906101000a900460ff16905092915050565b6060600c60008373ffffffffffffffffffffffffffffffffffffffff1673ffffffffffffffffffffffffffffffffffffffff1681526020019081526020016000208054806020026020016040519081016040528092919081815260200182805480156112d057602002820191906000526020600020905b8154815260200190600101908083116112bc575b50505050509050919050565b6112e461176a565b73ffffffffffffffffffffffffffffffffffffffff16611302610eb7565b73ffffffffffffffffffffffffffffffffffffffff1614611358576040517f08c379a000000000000000000000000000000000000000000000000000000000815260040161134f906135dd565b60405180910390fd5b600073ffffffffffffffffffffffffffffffffffffffff168173ffffffffffffffffffffffffffffffffffffffff1614156113c8576040517f08c379a00000000000000000000000000000000000000000000000000000000081526004016113bf9061343d565b60405180910390fd5b6113d181612022565b50565b6113dc61176a565b73ffffffffffffffffffffffffffffffffffffffff16600f60009054906101000a900473ffffffffffffffffffffffffffffffffffffffff1673ffffffffffffffffffffffffffffffffffffffff161461146b576040517f08c379a0000000000000000000000000000000000000000000000000000000008152600401611462906133fd565b60405180910390fd5b60006114776007611ef7565b90506114836007612429565b600f828486888a6114949190613871565b61149e9190613871565b6114a89190613871565b6114b29190613871565b146114f2576040517f08c379a00000000000000000000000000000000000000000000000000000000081526004016114e9906134fd565b60405180910390fd5b60006040518061012001604052808381526020018a8a8080601f016020809104026020016040519081016040528093929190818152602001838380828437600081840152601f19601f8201169050808301925050505050505081526020016001815260200188815260200187815260200186815260200185815260200184815260200160008152509050600e8190806001815401808255809150506001900390600052602060002090600902016000909190919091506000820151816000015560208201518160010190805190602001906115ce929190612829565b5060408201518160020155606082015181600301556080820151816004015560a0820151816005015560c0820151816006015560e08201518160070155610100820151816008015550506116228a8361243f565b600c60008b73ffffffffffffffffffffffffffffffffffffffff1673ffffffffffffffffffffffffffffffffffffffff16815260200190815260200160002082908060018154018082558091505060019003906000526020600020016000909190919091505550505050505050505050565b60007f01ffc9a7000000000000000000000000000000000000000000000000000000007bffffffffffffffffffffffffffffffffffffffffffffffffffffffff1916827bffffffffffffffffffffffffffffffffffffffffffffffffffffffff1916149050919050565b60008073ffffffffffffffffffffffffffffffffffffffff166002600084815260200190815260200160002060009054906101000a900473ffffffffffffffffffffffffffffffffffffffff1673ffffffffffffffffffffffffffffffffffffffff1614159050919050565b600033905090565b816004600083815260200190815260200160002060006101000a81548173ffffffffffffffffffffffffffffffffffffffff021916908373ffffffffffffffffffffffffffffffffffffffff160217905550808273ffffffffffffffffffffffffffffffffffffffff166117e583610cc5565b73ffffffffffffffffffffffffffffffffffffffff167f8c5be1e5ebec7d5bd14f71427d1e84f3dd0314c0f7b2291e5b200ac8c7c3b92560405160405180910390a45050565b6000600e878154811061184157611840613b85565b5b90600052602060002090600902016008015411611893576040517f08c379a000000000000000000000000000000000000000000000000000000000815260040161188a906134dd565b60405180910390fd5b600381838587896118a49190613871565b6118ae9190613871565b6118b89190613871565b6118c29190613871565b1115611903576040517f08c379a00000000000000000000000000000000000000000000000000000000081526004016118fa9061367d565b60405180910390fd5b84600e878154811061191857611917613b85565b5b906000526020600020906009020160030160008282546119389190613871565b9250508190555083600e878154811061195457611953613b85565b5b906000526020600020906009020160040160008282546119749190613871565b9250508190555082600e87815481106119905761198f613b85565b5b906000526020600020906009020160050160008282546119b09190613871565b9250508190555081600e87815481106119cc576119cb613b85565b5b906000526020600020906009020160060160008282546119ec9190613871565b9250508190555080600e8781548110611a0857611a07613b85565b5b90600052602060002090600902016007016000828254611a289190613871565b925050819055508082848688611a3e9190613871565b611a489190613871565b611a529190613871565b611a5c9190613871565b600e8781548110611a7057611a6f613b85565b5b90600052602060002090600902016008016000828254611a9091906138f8565b92505081905550505050505050565b6000611aaa826116fe565b611ae9576040517f08c379a0000000000000000000000000000000000000000000000000000000008152600401611ae09061351d565b60405180910390fd5b6000611af483610cc5565b90508073ffffffffffffffffffffffffffffffffffffffff168473ffffffffffffffffffffffffffffffffffffffff161480611b6357508373ffffffffffffffffffffffffffffffffffffffff16611b4b84610670565b73ffffffffffffffffffffffffffffffffffffffff16145b80611b745750611b7381856111b1565b5b91505092915050565b600080600090505b600c60008573ffffffffffffffffffffffffffffffffffffffff1673ffffffffffffffffffffffffffffffffffffffff16815260200190815260200160002080549050811015611c4e5782600c60008673ffffffffffffffffffffffffffffffffffffffff1673ffffffffffffffffffffffffffffffffffffffff1681526020019081526020016000208281548110611c2157611c20613b85565b5b90600052602060002001541415611c3b5780915050611c8a565b8080611c4690613a4f565b915050611b85565b506040517f08c379a0000000000000000000000000000000000000000000000000000000008152600401611c819061363d565b60405180910390fd5b92915050565b8273ffffffffffffffffffffffffffffffffffffffff16611cb082610cc5565b73ffffffffffffffffffffffffffffffffffffffff1614611d06576040517f08c379a0000000000000000000000000000000000000000000000000000000008152600401611cfd9061345d565b60405180910390fd5b600073ffffffffffffffffffffffffffffffffffffffff168273ffffffffffffffffffffffffffffffffffffffff161415611d76576040517f08c379a0000000000000000000000000000000000000000000000000000000008152600401611d6d9061349d565b60405180910390fd5b611d81838383612619565b611d8c600082611772565b6001600360008573ffffffffffffffffffffffffffffffffffffffff1673ffffffffffffffffffffffffffffffffffffffff1681526020019081526020016000206000828254611ddc91906138f8565b925050819055506001600360008473ffffffffffffffffffffffffffffffffffffffff1673ffffffffffffffffffffffffffffffffffffffff1681526020019081526020016000206000828254611e339190613871565b92505081905550816002600083815260200190815260200160002060006101000a81548173ffffffffffffffffffffffffffffffffffffffff021916908373ffffffffffffffffffffffffffffffffffffffff160217905550808273ffffffffffffffffffffffffffffffffffffffff168473ffffffffffffffffffffffffffffffffffffffff167fddf252ad1be2c89b69c2b068fc378daa952ba7f163c4a11628f55a4df523b3ef60405160405180910390a4611ef283838361261e565b505050565b600081600001549050919050565b6000611f1082610cc5565b9050611f1e81600084612619565b611f29600083611772565b6001600960008373ffffffffffffffffffffffffffffffffffffffff1673ffffffffffffffffffffffffffffffffffffffff1681526020019081526020016000206000828254611f7991906138f8565b925050819055506008600083815260200190815260200160002060006101000a81549073ffffffffffffffffffffffffffffffffffffffff021916905581600073ffffffffffffffffffffffffffffffffffffffff168273ffffffffffffffffffffffffffffffffffffffff167fddf252ad1be2c89b69c2b068fc378daa952ba7f163c4a11628f55a4df523b3ef60405160405180910390a461201e8160008461261e565b5050565b6000600660009054906101000a900473ffffffffffffffffffffffffffffffffffffffff16905081600660006101000a81548173ffffffffffffffffffffffffffffffffffffffff021916908373ffffffffffffffffffffffffffffffffffffffff1602179055508173ffffffffffffffffffffffffffffffffffffffff168173ffffffffffffffffffffffffffffffffffffffff167f8be0079c531659141344cd1fd0a4f28419497f9722a3daafe3b4186f6b6457e060405160405180910390a35050565b8173ffffffffffffffffffffffffffffffffffffffff168373ffffffffffffffffffffffffffffffffffffffff161415612157576040517f08c379a000000000000000000000000000000000000000000000000000000000815260040161214e906134bd565b60405180910390fd5b80600560008573ffffffffffffffffffffffffffffffffffffffff1673ffffffffffffffffffffffffffffffffffffffff16815260200190815260200160002060008473ffffffffffffffffffffffffffffffffffffffff1673ffffffffffffffffffffffffffffffffffffffff16815260200190815260200160002060006101000a81548160ff0219169083151502179055508173ffffffffffffffffffffffffffffffffffffffff168373ffffffffffffffffffffffffffffffffffffffff167f17307eab39ab6107e8899845ad3d59bd9653f200f220920489ca2b5937696c318360405161224891906133a5565b60405180910390a3505050565b612260848484611c90565b61226c84848484612623565b6122ab576040517f08c379a00000000000000000000000000000000000000000000000000000000081526004016122a29061341d565b60405180910390fd5b50505050565b606060405180602001604052806000815250905090565b60606000821415612310576040518060400160405280600181526020017f30000000000000000000000000000000000000000000000000000000000000008152509050612424565b600082905060005b6000821461234257808061232b90613a4f565b915050600a8261233b91906138c7565b9150612318565b60008167ffffffffffffffff81111561235e5761235d613bb4565b5b6040519080825280601f01601f1916602001820160405280156123905781602001600182028036833780820191505090505b5090505b6000851461241d576001826123a991906138f8565b9150600a856123b89190613a98565b60306123c49190613871565b60f81b8183815181106123da576123d9613b85565b5b60200101907effffffffffffffffffffffffffffffffffffffffffffffffffffffffffffff1916908160001a905350600a8561241691906138c7565b9450612394565b8093505050505b919050565b6001816000016000828254019250508190555050565b600073ffffffffffffffffffffffffffffffffffffffff168273ffffffffffffffffffffffffffffffffffffffff1614156124af576040517f08c379a00000000000000000000000000000000000000000000000000000000081526004016124a69061359d565b60405180910390fd5b6124b8816116fe565b156124f8576040517f08c379a00000000000000000000000000000000000000000000000000000000081526004016124ef9061347d565b60405180910390fd5b61250460008383612619565b6001600360008473ffffffffffffffffffffffffffffffffffffffff1673ffffffffffffffffffffffffffffffffffffffff16815260200190815260200160002060008282546125549190613871565b92505081905550816002600083815260200190815260200160002060006101000a81548173ffffffffffffffffffffffffffffffffffffffff021916908373ffffffffffffffffffffffffffffffffffffffff160217905550808273ffffffffffffffffffffffffffffffffffffffff16600073ffffffffffffffffffffffffffffffffffffffff167fddf252ad1be2c89b69c2b068fc378daa952ba7f163c4a11628f55a4df523b3ef60405160405180910390a46126156000838361261e565b5050565b505050565b505050565b60006126448473ffffffffffffffffffffffffffffffffffffffff166127ba565b156127ad578373ffffffffffffffffffffffffffffffffffffffff1663150b7a0261266d61176a565b8786866040518563ffffffff1660e01b815260040161268f9493929190613337565b602060405180830381600087803b1580156126a957600080fd5b505af19250505080156126da57506040513d601f19601f820116820180604052508101906126d79190612cad565b60015b61275d573d806000811461270a576040519150601f19603f3d011682016040523d82523d6000602084013e61270f565b606091505b50600081511415612755576040517f08c379a000000000000000000000000000000000000000000000000000000000815260040161274c9061341d565b60405180910390fd5b805181602001fd5b63150b7a0260e01b7bffffffffffffffffffffffffffffffffffffffffffffffffffffffff1916817bffffffffffffffffffffffffffffffffffffffffffffffffffffffff1916149150506127b2565b600190505b949350505050565b6000808273ffffffffffffffffffffffffffffffffffffffff163b119050919050565b6040518061012001604052806000815260200160608152602001600081526020016000815260200160008152602001600081526020016000815260200160008152602001600081525090565b828054612835906139ec565b90600052602060002090601f016020900481019282612857576000855561289e565b82601f1061287057805160ff191683800117855561289e565b8280016001018555821561289e579182015b8281111561289d578251825591602001919060010190612882565b5b5090506128ab91906128af565b5090565b5b808211156128c85760008160009055506001016128b0565b5090565b60006128df6128da846137b3565b61378e565b9050828152602081018484840111156128fb576128fa613bf2565b5b6129068482856139aa565b509392505050565b60008135905061291d81614186565b92915050565b6000813590506129328161419d565b92915050565b600081359050612947816141b4565b92915050565b60008151905061295c816141b4565b92915050565b600082601f83011261297757612976613be8565b5b81356129878482602086016128cc565b91505092915050565b60008083601f8401126129a6576129a5613be8565b5b8235905067ffffffffffffffff8111156129c3576129c2613be3565b5b6020830191508360018202830111156129df576129de613bed565b5b9250929050565b6000813590506129f5816141cb565b92915050565b600060208284031215612a1157612a10613bfc565b5b6000612a1f8482850161290e565b91505092915050565b60008060408385031215612a3f57612a3e613bfc565b5b6000612a4d8582860161290e565b9250506020612a5e8582860161290e565b9150509250929050565b600080600060608486031215612a8157612a80613bfc565b5b6000612a8f8682870161290e565b9350506020612aa08682870161290e565b9250506040612ab1868287016129e6565b9150509250925092565b60008060008060808587031215612ad557612ad4613bfc565b5b6000612ae38782880161290e565b9450506020612af48782880161290e565b9350506040612b05878288016129e6565b925050606085013567ffffffffffffffff811115612b2657612b25613bf7565b5b612b3287828801612962565b91505092959194509250565b60008060408385031215612b5557612b54613bfc565b5b6000612b638582860161290e565b9250506020612b7485828601612923565b9150509250929050565b60008060008060008060008060e0898b031215612b9e57612b9d613bfc565b5b6000612bac8b828c0161290e565b985050602089013567ffffffffffffffff811115612bcd57612bcc613bf7565b5b612bd98b828c01612990565b97509750506040612bec8b828c016129e6565b9550506060612bfd8b828c016129e6565b9450506080612c0e8b828c016129e6565b93505060a0612c1f8b828c016129e6565b92505060c0612c308b828c016129e6565b9150509295985092959890939650565b60008060408385031215612c5757612c56613bfc565b5b6000612c658582860161290e565b9250506020612c76858286016129e6565b9150509250929050565b600060208284031215612c9657612c95613bfc565b5b6000612ca484828501612938565b91505092915050565b600060208284031215612cc357612cc2613bfc565b5b6000612cd18482850161294d565b91505092915050565b600060208284031215612cf057612cef613bfc565b5b6000612cfe848285016129e6565b91505092915050565b60008060008060008060c08789031215612d2457612d23613bfc565b5b6000612d3289828a016129e6565b9650506020612d4389828a016129e6565b9550506040612d5489828a016129e6565b9450506060612d6589828a016129e6565b9350506080612d7689828a016129e6565b92505060a0612d8789828a016129e6565b9150509295509295509295565b6000612da083836132da565b60208301905092915050565b612db58161392c565b82525050565b6000612dc6826137f4565b612dd08185613822565b9350612ddb836137e4565b8060005b83811015612e0c578151612df38882612d94565b9750612dfe83613815565b925050600181019050612ddf565b5085935050505092915050565b612e228161393e565b82525050565b6000612e33826137ff565b612e3d8185613833565b9350612e4d8185602086016139b9565b612e5681613c01565b840191505092915050565b612e6a81613976565b82525050565b6000612e7b8261380a565b612e858185613844565b9350612e958185602086016139b9565b612e9e81613c01565b840191505092915050565b6000612eb48261380a565b612ebe8185613855565b9350612ece8185602086016139b9565b612ed781613c01565b840191505092915050565b6000612eed8261380a565b612ef78185613866565b9350612f078185602086016139b9565b80840191505092915050565b6000612f20602983613855565b9150612f2b82613c12565b604082019050919050565b6000612f43603283613855565b9150612f4e82613c61565b604082019050919050565b6000612f66602683613855565b9150612f7182613cb0565b604082019050919050565b6000612f89602583613855565b9150612f9482613cff565b604082019050919050565b6000612fac601c83613855565b9150612fb782613d4e565b602082019050919050565b6000612fcf602483613855565b9150612fda82613d77565b604082019050919050565b6000612ff2601983613855565b9150612ffd82613dc6565b602082019050919050565b6000613015601283613855565b915061302082613def565b602082019050919050565b6000613038601c83613855565b915061304382613e18565b602082019050919050565b600061305b602c83613855565b915061306682613e41565b604082019050919050565b600061307e603883613855565b915061308982613e90565b604082019050919050565b60006130a1602a83613855565b91506130ac82613edf565b604082019050919050565b60006130c4602983613855565b91506130cf82613f2e565b604082019050919050565b60006130e7602083613855565b91506130f282613f7d565b602082019050919050565b600061310a602c83613855565b915061311582613fa6565b604082019050919050565b600061312d602083613855565b915061313882613ff5565b602082019050919050565b6000613150602f83613855565b915061315b8261401e565b604082019050919050565b6000613173601683613855565b915061317e8261406d565b602082019050919050565b6000613196600f83613855565b91506131a182614096565b602082019050919050565b60006131b9602183613855565b91506131c4826140bf565b604082019050919050565b60006131dc601683613855565b91506131e78261410e565b602082019050919050565b60006131ff603183613855565b915061320a82614137565b604082019050919050565b60006101208301600083015161322e60008601826132da565b50602083015184820360208601526132468282612e70565b915050604083015161325b60408601826132da565b50606083015161326e60608601826132da565b50608083015161328160808601826132da565b5060a083015161329460a08601826132da565b5060c08301516132a760c08601826132da565b5060e08301516132ba60e08601826132da565b506101008301516132cf6101008601826132da565b508091505092915050565b6132e3816139a0565b82525050565b6132f2816139a0565b82525050565b60006133048285612ee2565b91506133108284612ee2565b91508190509392505050565b60006020820190506133316000830184612dac565b92915050565b600060808201905061334c6000830187612dac565b6133596020830186612dac565b61336660408301856132e9565b81810360608301526133788184612e28565b905095945050505050565b6000602082019050818103600083015261339d8184612dbb565b905092915050565b60006020820190506133ba6000830184612e19565b92915050565b60006020820190506133d56000830184612e61565b92915050565b600060208201905081810360008301526133f58184612ea9565b905092915050565b6000602082019050818103600083015261341681612f13565b9050919050565b6000602082019050818103600083015261343681612f36565b9050919050565b6000602082019050818103600083015261345681612f59565b9050919050565b6000602082019050818103600083015261347681612f7c565b9050919050565b6000602082019050818103600083015261349681612f9f565b9050919050565b600060208201905081810360008301526134b681612fc2565b9050919050565b600060208201905081810360008301526134d681612fe5565b9050919050565b600060208201905081810360008301526134f681613008565b9050919050565b600060208201905081810360008301526135168161302b565b9050919050565b600060208201905081810360008301526135368161304e565b9050919050565b6000602082019050818103600083015261355681613071565b9050919050565b6000602082019050818103600083015261357681613094565b9050919050565b60006020820190508181036000830152613596816130b7565b9050919050565b600060208201905081810360008301526135b6816130da565b9050919050565b600060208201905081810360008301526135d6816130fd565b9050919050565b600060208201905081810360008301526135f681613120565b9050919050565b6000602082019050818103600083015261361681613143565b9050919050565b6000602082019050818103600083015261363681613166565b9050919050565b6000602082019050818103600083015261365681613189565b9050919050565b60006020820190508181036000830152613676816131ac565b9050919050565b60006020820190508181036000830152613696816131cf565b9050919050565b600060208201905081810360008301526136b6816131f2565b9050919050565b600060208201905081810360008301526136d78184613215565b905092915050565b60006020820190506136f460008301846132e9565b92915050565b600061012082019050613710600083018c6132e9565b8181036020830152613722818b612ea9565b9050613731604083018a6132e9565b61373e60608301896132e9565b61374b60808301886132e9565b61375860a08301876132e9565b61376560c08301866132e9565b61377260e08301856132e9565b6137806101008301846132e9565b9a9950505050505050505050565b60006137986137a9565b90506137a48282613a1e565b919050565b6000604051905090565b600067ffffffffffffffff8211156137ce576137cd613bb4565b5b6137d782613c01565b9050602081019050919050565b6000819050602082019050919050565b600081519050919050565b600081519050919050565b600081519050919050565b6000602082019050919050565b600082825260208201905092915050565b600082825260208201905092915050565b600082825260208201905092915050565b600082825260208201905092915050565b600081905092915050565b600061387c826139a0565b9150613887836139a0565b9250827fffffffffffffffffffffffffffffffffffffffffffffffffffffffffffffffff038211156138bc576138bb613ac9565b5b828201905092915050565b60006138d2826139a0565b91506138dd836139a0565b9250826138ed576138ec613af8565b5b828204905092915050565b6000613903826139a0565b915061390e836139a0565b92508282101561392157613920613ac9565b5b828203905092915050565b600061393782613980565b9050919050565b60008115159050919050565b60007fffffffff0000000000000000000000000000000000000000000000000000000082169050919050565b6000819050919050565b600073ffffffffffffffffffffffffffffffffffffffff82169050919050565b6000819050919050565b82818337600083830152505050565b60005b838110156139d75780820151818401526020810190506139bc565b838111156139e6576000848401525b50505050565b60006002820490506001821680613a0457607f821691505b60208210811415613a1857613a17613b27565b5b50919050565b613a2782613c01565b810181811067ffffffffffffffff82111715613a4657613a45613bb4565b5b80604052505050565b6000613a5a826139a0565b91507fffffffffffffffffffffffffffffffffffffffffffffffffffffffffffffffff821415613a8d57613a8c613ac9565b5b600182019050919050565b6000613aa3826139a0565b9150613aae836139a0565b925082613abe57613abd613af8565b5b828206905092915050565b7f4e487b7100000000000000000000000000000000000000000000000000000000600052601160045260246000fd5b7f4e487b7100000000000000000000000000000000000000000000000000000000600052601260045260246000fd5b7f4e487b7100000000000000000000000000000000000000000000000000000000600052602260045260246000fd5b7f4e487b7100000000000000000000000000000000000000000000000000000000600052603160045260246000fd5b7f4e487b7100000000000000000000000000000000000000000000000000000000600052603260045260246000fd5b7f4e487b7100000000000000000000000000000000000000000000000000000000600052604160045260246000fd5b600080fd5b600080fd5b600080fd5b600080fd5b600080fd5b600080fd5b6000601f19601f8301169050919050565b7f436f6e74726163742063616c6c6572206973206e6f742074686520436f6e747260008201527f616374206f776e65720000000000000000000000000000000000000000000000602082015250565b7f4552433732313a207472616e7366657220746f206e6f6e20455243373231526560008201527f63656976657220696d706c656d656e7465720000000000000000000000000000602082015250565b7f4f776e61626c653a206e6577206f776e657220697320746865207a65726f206160008201527f6464726573730000000000000000000000000000000000000000000000000000602082015250565b7f4552433732313a207472616e736665722066726f6d20696e636f72726563742060008201527f6f776e6572000000000000000000000000000000000000000000000000000000602082015250565b7f4552433732313a20746f6b656e20616c7265616479206d696e74656400000000600082015250565b7f4552433732313a207472616e7366657220746f20746865207a65726f2061646460008201527f7265737300000000000000000000000000000000000000000000000000000000602082015250565b7f4552433732313a20617070726f766520746f2063616c6c657200000000000000600082015250565b7f686176656e277420706f696e7420737461740000000000000000000000000000600082015250565b7f796f75206d7573742073657420313520706f696e742773207374617400000000600082015250565b7f4552433732313a206f70657261746f7220717565727920666f72206e6f6e657860008201527f697374656e7420746f6b656e0000000000000000000000000000000000000000602082015250565b7f4552433732313a20617070726f76652063616c6c6572206973206e6f74206f7760008201527f6e6572206e6f7220617070726f76656420666f7220616c6c0000000000000000602082015250565b7f4552433732313a2062616c616e636520717565727920666f7220746865207a6560008201527f726f206164647265737300000000000000000000000000000000000000000000602082015250565b7f4552433732313a206f776e657220717565727920666f72206e6f6e657869737460008201527f656e7420746f6b656e0000000000000000000000000000000000000000000000602082015250565b7f4552433732313a206d696e7420746f20746865207a65726f2061646472657373600082015250565b7f4552433732313a20617070726f76656420717565727920666f72206e6f6e657860008201527f697374656e7420746f6b656e0000000000000000000000000000000000000000602082015250565b7f4f776e61626c653a2063616c6c6572206973206e6f7420746865206f776e6572600082015250565b7f4552433732314d657461646174613a2055524920717565727920666f72206e6f60008201527f6e6578697374656e7420746f6b656e0000000000000000000000000000000000602082015250565b7f73656c65637420636f727265637420546f6b656e496400000000000000000000600082015250565b7f546f6b656e20646f6e742066696e640000000000000000000000000000000000600082015250565b7f4552433732313a20617070726f76616c20746f2063757272656e74206f776e6560008201527f7200000000000000000000000000000000000000000000000000000000000000602082015250565b7f796f75206d757374207365742033207570677261646500000000000000000000600082015250565b7f4552433732313a207472616e736665722063616c6c6572206973206e6f74206f60008201527f776e6572206e6f7220617070726f766564000000000000000000000000000000602082015250565b61418f8161392c565b811461419a57600080fd5b50565b6141a68161393e565b81146141b157600080fd5b50565b6141bd8161394a565b81146141c857600080fd5b50565b6141d4816139a0565b81146141df57600080fd5b5056fea26469706673582212202abae0f4e5478b4da699eb871b5f2cc9238f40680eeac7bf28c9159906d8618b64736f6c63430008070033",
  "immutableReferences": {},
  "source": "// SPDX-License-Identifier: Leluk911\npragma solidity 0.8.7;\n\nimport \"../node_modules/@openzeppelin/contracts/token/ERC721/ERC721.sol\";\nimport \"../node_modules/@openzeppelin/contracts/token/ERC721/extensions/ERC721URIStorage.sol\";\nimport \"../node_modules/@openzeppelin/contracts/utils/Counters.sol\";\nimport \"../node_modules/@openzeppelin/contracts/access/Ownable.sol\";\nimport \"../node_modules/@openzeppelin/contracts/security/Pausable.sol\";\n\ncontract NewStikiNFT is ERC721, Ownable, Pausable {\n    using Counters for Counters.Counter;\n    Counters.Counter private _tokenIds;\n\n    constructor(address _MinterContract) ERC721(\"Stiki\", \"STK\") {\n        MinterContract = _MinterContract;\n    }\n\n    // Mapping from token ID to owner address\n    mapping(uint256 => address) private _owners;\n\n    // Mapping owner address to token count\n    mapping(address => uint256) private _balances;\n\n    // Mapping from token ID to approved address\n    mapping(uint256 => address) private _tokenApprovals;\n\n    // Mapping from owner to operator approvals\n    mapping(address => mapping(address => bool)) private _operatorApprovals;\n\n    // Mapping total nft for user\n    mapping(address => uint256[]) internal NftsForUSer;\n\n    mapping(address => int256) public rankingPoint;\n\n    struct StikiWarrior {\n        uint256 Id;\n        string name;\n        uint256 level;\n        uint256 lifepoint;\n        uint256 power;\n        uint256 dex;\n        uint256 stamina;\n        uint256 speed;\n        uint256 poinStat;\n    }\n    StikiWarrior[] public stikies;\n\n    address private MinterContract;\n\n    modifier onlyContractMinter() {\n        require(\n            MinterContract == _msgSender(),\n            \"Contract caller is not the Contract owner\"\n        );\n        _;\n    }\n\n    function mint(\n        address to,\n        string calldata _name,\n        uint256 _lifepoint,\n        uint256 _power,\n        uint256 _dex,\n        uint256 _stamina,\n        uint256 _speed\n    ) external virtual onlyContractMinter {\n        uint256 newItemId = _tokenIds.current();\n        _tokenIds.increment();\n        // use can set 15 points for new Stiki\n        require(\n            (_lifepoint + _power + _dex + _stamina + _speed) == 15,\n            \"you must set 15 point's stat\"\n        );\n\n        StikiWarrior memory NewStiki = StikiWarrior(\n            newItemId,\n            _name,\n            1,\n            _lifepoint,\n            _power,\n            _dex,\n            _stamina,\n            _speed,\n            0\n        );\n        stikies.push(NewStiki);\n        _mint(to, newItemId);\n        NftsForUSer[to].push(newItemId);\n    }\n\n    function _setStat(\n        uint256 _tokenId,\n        uint256 _lifepoint,\n        uint256 _power,\n        uint256 _dex,\n        uint256 _stamina,\n        uint256 _speed\n    ) internal {\n        // use can set 3 points for new Stiki\n        require(stikies[_tokenId].poinStat > 0, \"haven't point stat\");\n        require(\n            (_lifepoint + _power + _dex + _stamina + _speed) <= 3,\n            \"you must set 3 upgrade\"\n        );\n\n        stikies[_tokenId].lifepoint += _lifepoint;\n        stikies[_tokenId].power += _power;\n        stikies[_tokenId].dex += _dex;\n        stikies[_tokenId].stamina += _stamina;\n        stikies[_tokenId].speed += _speed;\n        stikies[_tokenId].poinStat -=\n            _lifepoint +\n            _power +\n            _dex +\n            _stamina +\n            _speed;\n    }\n\n    function setStat(\n        uint256 _tokenId,\n        uint256 _lifepoint,\n        uint256 _power,\n        uint256 _dex,\n        uint256 _stamina,\n        uint256 _speed\n    ) external {\n        require(msg.sender == ownerOf(_tokenId), \"select correct TokenId\");\n        _setStat(_tokenId, _lifepoint, _power, _dex, _stamina, _speed);\n    }\n\n    function _levelUp(address _owner, uint256 _tokenId) internal {\n        rankingPoint[_owner] += 1;\n        stikies[_tokenId].level += 1;\n        stikies[_tokenId].lifepoint += 1;\n        stikies[_tokenId].power += 1;\n        stikies[_tokenId].dex += 1;\n        stikies[_tokenId].stamina += 1;\n        stikies[_tokenId].speed += 1;\n        stikies[_tokenId].poinStat += 3;\n    }\n\n    function viewAllNftsUser(address _owner)\n        public\n        view\n        returns (uint256[] memory)\n    {\n        return NftsForUSer[_owner];\n    }\n\n    function viewStat(uint256 _tokenId)\n        public\n        view\n        virtual\n        returns (StikiWarrior memory)\n    {\n        return stikies[_tokenId];\n    }\n\n    // this transaction must approve\n    //function transferNft(address _to, uint256 _tokenId) external virtual {\n    //    uint256 idlist = findNFtInUSerList(msg.sender, _tokenId);\n    //    NftsForUSer[msg.sender][idlist] = NftsForUSer[msg.sender][\n    //        NftsForUSer[msg.sender].length - 1\n    //    ];\n    //    NftsForUSer[msg.sender].pop();\n    //    _transfer(msg.sender, _to, _tokenId);\n    //}\n    function transferFrom(\n        address from,\n        address to,\n        uint256 tokenId\n    ) public virtual override {\n        //solhint-disable-next-line max-line-length\n        require(\n            _isApprovedOrOwner(_msgSender(), tokenId),\n            \"ERC721: transfer caller is not owner nor approved\"\n        );\n        uint256 idlist = findNFtInUSerList(from, tokenId);\n        NftsForUSer[from][idlist] = NftsForUSer[from][\n            NftsForUSer[from].length - 1\n        ];\n        NftsForUSer[from].pop();\n        _transfer(from, to, tokenId);\n        NftsForUSer[to].push(tokenId);\n    }\n\n    function findNFtInUSerList(address _owner, uint256 _tokenId)\n        internal\n        view\n        returns (uint256)\n    {\n        for (uint256 i = 0; i < NftsForUSer[_owner].length; i++) {\n            if (NftsForUSer[_owner][i] == _tokenId) {\n                return i;\n            }\n        }\n        revert(\"Token dont find\");\n    }\n\n    function burn(uint256 tokenId) external onlyContractMinter {\n        _burn(tokenId);\n    }\n\n    function _burn(uint256 tokenId) internal virtual override {\n        address owner = ERC721.ownerOf(tokenId);\n\n        _beforeTokenTransfer(owner, address(0), tokenId);\n\n        // Clear approvals\n        _approve(address(0), tokenId);\n\n        _balances[owner] -= 1;\n        delete _owners[tokenId];\n\n        emit Transfer(owner, address(0), tokenId);\n\n        _afterTokenTransfer(owner, address(0), tokenId);\n    }\n\n    function viewCurrentID() public view returns (uint256 id) {\n        return id = _tokenIds.current();\n    }\n}\n",
  "sourcePath": "/Users/lucianodinoia/Desktop/moralis Academy/Build an NFT Marketplace/Stiki war react-moralis/contracts/NewStikiNft.sol",
  "compiler": {
    "name": "solc",
    "version": "0.8.7+commit.e28d00a7.Emscripten.clang"
  },
  "schemaVersion": "3.4.6",
  "updatedAt": "2022-05-13T20:09:41.214Z",
  "networkType": "ethereum",
  "devdoc": {
    "kind": "dev",
    "methods": {
      "approve(address,uint256)": {
        "details": "See {IERC721-approve}."
      },
      "balanceOf(address)": {
        "details": "See {IERC721-balanceOf}."
      },
      "getApproved(uint256)": {
        "details": "See {IERC721-getApproved}."
      },
      "isApprovedForAll(address,address)": {
        "details": "See {IERC721-isApprovedForAll}."
      },
      "name()": {
        "details": "See {IERC721Metadata-name}."
      },
      "owner()": {
        "details": "Returns the address of the current owner."
      },
      "ownerOf(uint256)": {
        "details": "See {IERC721-ownerOf}."
      },
      "paused()": {
        "details": "Returns true if the contract is paused, and false otherwise."
      },
      "renounceOwnership()": {
        "details": "Leaves the contract without owner. It will not be possible to call `onlyOwner` functions anymore. Can only be called by the current owner. NOTE: Renouncing ownership will leave the contract without an owner, thereby removing any functionality that is only available to the owner."
      },
      "safeTransferFrom(address,address,uint256)": {
        "details": "See {IERC721-safeTransferFrom}."
      },
      "safeTransferFrom(address,address,uint256,bytes)": {
        "details": "See {IERC721-safeTransferFrom}."
      },
      "setApprovalForAll(address,bool)": {
        "details": "See {IERC721-setApprovalForAll}."
      },
      "supportsInterface(bytes4)": {
        "details": "See {IERC165-supportsInterface}."
      },
      "symbol()": {
        "details": "See {IERC721Metadata-symbol}."
      },
      "tokenURI(uint256)": {
        "details": "See {IERC721Metadata-tokenURI}."
      },
      "transferFrom(address,address,uint256)": {
        "details": "See {IERC721-transferFrom}."
      },
      "transferOwnership(address)": {
        "details": "Transfers ownership of the contract to a new account (`newOwner`). Can only be called by the current owner."
      }
    },
    "version": 1
  },
  "userdoc": {
    "kind": "user",
    "methods": {},
    "version": 1
  }
}