{
  "contractName": "Turnament",
  "abi": [
    {
      "inputs": [
        {
          "internalType": "address",
          "name": "_stikiWarrior",
          "type": "address"
        }
      ],
      "stateMutability": "nonpayable",
      "type": "constructor"
    },
    {
      "anonymous": false,
      "inputs": [
        {
          "indexed": true,
          "internalType": "address",
          "name": "previousOwner",
          "type": "address"
        },
        {
          "indexed": true,
          "internalType": "address",
          "name": "newOwner",
          "type": "address"
        }
      ],
      "name": "OwnershipTransferred",
      "type": "event"
    },
    {
      "anonymous": false,
      "inputs": [
        {
          "indexed": false,
          "internalType": "address",
          "name": "account",
          "type": "address"
        }
      ],
      "name": "Paused",
      "type": "event"
    },
    {
      "anonymous": false,
      "inputs": [
        {
          "indexed": false,
          "internalType": "address",
          "name": "account",
          "type": "address"
        }
      ],
      "name": "Unpaused",
      "type": "event"
    },
    {
      "inputs": [],
      "name": "owner",
      "outputs": [
        {
          "internalType": "address",
          "name": "",
          "type": "address"
        }
      ],
      "stateMutability": "view",
      "type": "function",
      "constant": true
    },
    {
      "inputs": [],
      "name": "paused",
      "outputs": [
        {
          "internalType": "bool",
          "name": "",
          "type": "bool"
        }
      ],
      "stateMutability": "view",
      "type": "function",
      "constant": true
    },
    {
      "inputs": [],
      "name": "renounceOwnership",
      "outputs": [],
      "stateMutability": "nonpayable",
      "type": "function"
    },
    {
      "inputs": [
        {
          "internalType": "address",
          "name": "newOwner",
          "type": "address"
        }
      ],
      "name": "transferOwnership",
      "outputs": [],
      "stateMutability": "nonpayable",
      "type": "function"
    }
  ],
  "bytecode": "0x608060405234801561001057600080fd5b5060405161078f38038061078f83398181016040528101906100329190610191565b60008060006101000a81548160ff02191690831515021790555061006861005d6100af60201b60201c565b6100b760201b60201c565b80600160006101000a81548173ffffffffffffffffffffffffffffffffffffffff021916908373ffffffffffffffffffffffffffffffffffffffff1602179055505061020c565b600033905090565b60008060019054906101000a900473ffffffffffffffffffffffffffffffffffffffff16905081600060016101000a81548173ffffffffffffffffffffffffffffffffffffffff021916908373ffffffffffffffffffffffffffffffffffffffff1602179055508173ffffffffffffffffffffffffffffffffffffffff168173ffffffffffffffffffffffffffffffffffffffff167f8be0079c531659141344cd1fd0a4f28419497f9722a3daafe3b4186f6b6457e060405160405180910390a35050565b60008151905061018b816101f5565b92915050565b6000602082840312156101a7576101a66101f0565b5b60006101b58482850161017c565b91505092915050565b60006101c9826101d0565b9050919050565b600073ffffffffffffffffffffffffffffffffffffffff82169050919050565b600080fd5b6101fe816101be565b811461020957600080fd5b50565b6105748061021b6000396000f3fe608060405234801561001057600080fd5b506004361061004c5760003560e01c80635c975abb14610051578063715018a61461006f5780638da5cb5b14610079578063f2fde38b14610097575b600080fd5b6100596100b3565b6040516100669190610400565b60405180910390f35b6100776100c9565b005b610081610151565b60405161008e91906103e5565b60405180910390f35b6100b160048036038101906100ac9190610354565b61017a565b005b60008060009054906101000a900460ff16905090565b6100d1610272565b73ffffffffffffffffffffffffffffffffffffffff166100ef610151565b73ffffffffffffffffffffffffffffffffffffffff1614610145576040517f08c379a000000000000000000000000000000000000000000000000000000000815260040161013c9061043b565b60405180910390fd5b61014f600061027a565b565b60008060019054906101000a900473ffffffffffffffffffffffffffffffffffffffff16905090565b610182610272565b73ffffffffffffffffffffffffffffffffffffffff166101a0610151565b73ffffffffffffffffffffffffffffffffffffffff16146101f6576040517f08c379a00000000000000000000000000000000000000000000000000000000081526004016101ed9061043b565b60405180910390fd5b600073ffffffffffffffffffffffffffffffffffffffff168173ffffffffffffffffffffffffffffffffffffffff161415610266576040517f08c379a000000000000000000000000000000000000000000000000000000000815260040161025d9061041b565b60405180910390fd5b61026f8161027a565b50565b600033905090565b60008060019054906101000a900473ffffffffffffffffffffffffffffffffffffffff16905081600060016101000a81548173ffffffffffffffffffffffffffffffffffffffff021916908373ffffffffffffffffffffffffffffffffffffffff1602179055508173ffffffffffffffffffffffffffffffffffffffff168173ffffffffffffffffffffffffffffffffffffffff167f8be0079c531659141344cd1fd0a4f28419497f9722a3daafe3b4186f6b6457e060405160405180910390a35050565b60008135905061034e81610527565b92915050565b60006020828403121561036a576103696104aa565b5b60006103788482850161033f565b91505092915050565b61038a8161046c565b82525050565b6103998161047e565b82525050565b60006103ac60268361045b565b91506103b7826104af565b604082019050919050565b60006103cf60208361045b565b91506103da826104fe565b602082019050919050565b60006020820190506103fa6000830184610381565b92915050565b60006020820190506104156000830184610390565b92915050565b600060208201905081810360008301526104348161039f565b9050919050565b60006020820190508181036000830152610454816103c2565b9050919050565b600082825260208201905092915050565b60006104778261048a565b9050919050565b60008115159050919050565b600073ffffffffffffffffffffffffffffffffffffffff82169050919050565b600080fd5b7f4f776e61626c653a206e6577206f776e657220697320746865207a65726f206160008201527f6464726573730000000000000000000000000000000000000000000000000000602082015250565b7f4f776e61626c653a2063616c6c6572206973206e6f7420746865206f776e6572600082015250565b6105308161046c565b811461053b57600080fd5b5056fea2646970667358221220a81e0f0610baabc15450e51c301f2d3c639db57587610971a4b9c8344d2b46ae64736f6c63430008070033",
  "immutableReferences": {},
  "source": "// SPDX-License-Identifier: Leluk911\npragma solidity 0.8.7;\n\nimport \"../node_modules/@openzeppelin/contracts/token/ERC20/IERC20.sol\";\nimport \"../node_modules/@openzeppelin/contracts/token/ERC721/IERC721.sol\";\nimport \"../node_modules/@openzeppelin/contracts/utils/Counters.sol\";\nimport \"../node_modules/@openzeppelin/contracts/access/Ownable.sol\";\nimport \"../node_modules/@openzeppelin/contracts/security/Pausable.sol\";\n\ncontract Turnament is Pausable, Ownable {\n    IERC721 stikiWarrior;\n\n    constructor(address _stikiWarrior) {\n        stikiWarrior = IERC721(_stikiWarrior);\n    }\n\n    using Counters for Counters.Counter;\n    Counters.Counter private _listId;\n\n    //Player deposit Nft\n\n    // ricevuta deposito address => id\n    mapping(address => uint256) private receipDepostNft;\n    mapping(address => uint256[]) private listDepositNft;\n\n    // staking War (deposito nella lista dei combattenti)\n    // address => indexList => indexList\n    mapping(address => mapping(uint256 => bool)) private stakingWar;\n    //list token in stakingWarlist\n    mapping(address => mapping(uint256 => uint256)) private stakingWarID;\n    uint256[] listStakingWar;\n\n    function _depositStikiWar(address _to, uint256 _tokenId) internal {\n        stikiWarrior.transferFrom(_to, address(this), _tokenId);\n        receipDepostNft[_to] = _tokenId;\n        listDepositNft[_to].push(receipDepostNft[_to]);\n    }\n\n    function _withdrawalNft(address _to, uint256 _indexList) internal {\n        require(!stakingWar[_to][_indexList], \" Nft deposit in stakingWar\");\n        uint256 _tokenId = listDepositNft[_to][_indexList];\n        require(receipDepostNft[_to] == _tokenId);\n        receipDepostNft[_to] = 0;\n        //remove array element\n        uint256[] storage listArray = listDepositNft[_to];\n        uint256 len = listArray.length;\n        listArray[_indexList] = listArray[listArray.length - 1];\n        listArray.pop();\n        //\n        stikiWarrior.approve(address(this), _tokenId);\n        stikiWarrior.transferFrom(address(this), _to, _tokenId);\n        //\n        require(stikiWarrior.ownerOf(_tokenId) == _to);\n        require(listArray.length + 1 == len);\n    }\n\n    function _stakingWar(address _to, uint256 _indexList) internal {\n        uint256 listId = _listId.current();\n        _listId.increment();\n        stakingWar[_to][_indexList] = true;\n        stakingWarID[_to][_indexList] = listId;\n        listStakingWar.push(listId);\n    }\n\n    function _unStakingWar(address _to, uint256 _indexList) internal {\n        require(\n            stakingWar[_to][_indexList],\n            \"nft not in list or your dont owner\"\n        );\n        stakingWar[_to][_indexList] = false;\n\n        //remove array element\n        uint256 idPopList = _findIdListStakingWar(_to, _indexList);\n        listStakingWar[idPopList] = listStakingWar[listStakingWar.length - 1];\n        listStakingWar.pop();\n        //\n    }\n\n    function _findIdListStakingWar(address _to, uint256 _indexList)\n        internal\n        view\n        returns (uint256)\n    {\n        for (uint256 i = 0; i < listStakingWar.length; i++) {\n            if (listStakingWar[i] == stakingWarID[_to][_indexList]) {\n                return i;\n            }\n        }\n        revert(\"element don't find in list\");\n    }\n}\n",
  "sourcePath": "/Users/lucianodinoia/Desktop/moralis Academy/Build an NFT Marketplace/Stiki war react-moralis/contracts/turnament.sol",
  "compiler": {
    "name": "solc",
    "version": "0.8.7+commit.e28d00a7.Emscripten.clang"
  },
  "schemaVersion": "3.4.6",
  "updatedAt": "2022-05-13T20:09:41.250Z",
  "networkType": "ethereum",
  "devdoc": {
    "kind": "dev",
    "methods": {
      "owner()": {
        "details": "Returns the address of the current owner."
      },
      "paused()": {
        "details": "Returns true if the contract is paused, and false otherwise."
      },
      "renounceOwnership()": {
        "details": "Leaves the contract without owner. It will not be possible to call `onlyOwner` functions anymore. Can only be called by the current owner. NOTE: Renouncing ownership will leave the contract without an owner, thereby removing any functionality that is only available to the owner."
      },
      "transferOwnership(address)": {
        "details": "Transfers ownership of the contract to a new account (`newOwner`). Can only be called by the current owner."
      }
    },
    "version": 1
  },
  "userdoc": {
    "kind": "user",
    "methods": {},
    "version": 1
  }
}