{
  "contractName": "MyNft",
  "abi": [
    {
      "inputs": [],
      "stateMutability": "nonpayable",
      "type": "constructor"
    },
    {
      "anonymous": false,
      "inputs": [
        {
          "indexed": true,
          "internalType": "address",
          "name": "owner",
          "type": "address"
        },
        {
          "indexed": true,
          "internalType": "address",
          "name": "approved",
          "type": "address"
        },
        {
          "indexed": true,
          "internalType": "uint256",
          "name": "tokenId",
          "type": "uint256"
        }
      ],
      "name": "Approval",
      "type": "event"
    },
    {
      "anonymous": false,
      "inputs": [
        {
          "indexed": true,
          "internalType": "address",
          "name": "owner",
          "type": "address"
        },
        {
          "indexed": true,
          "internalType": "address",
          "name": "operator",
          "type": "address"
        },
        {
          "indexed": false,
          "internalType": "bool",
          "name": "approved",
          "type": "bool"
        }
      ],
      "name": "ApprovalForAll",
      "type": "event"
    },
    {
      "anonymous": false,
      "inputs": [
        {
          "indexed": true,
          "internalType": "address",
          "name": "from",
          "type": "address"
        },
        {
          "indexed": true,
          "internalType": "address",
          "name": "to",
          "type": "address"
        },
        {
          "indexed": true,
          "internalType": "uint256",
          "name": "tokenId",
          "type": "uint256"
        }
      ],
      "name": "Transfer",
      "type": "event"
    },
    {
      "inputs": [
        {
          "internalType": "uint256",
          "name": "",
          "type": "uint256"
        }
      ],
      "name": "Cats",
      "outputs": [
        {
          "internalType": "uint8",
          "name": "color1",
          "type": "uint8"
        },
        {
          "internalType": "uint8",
          "name": "color2",
          "type": "uint8"
        },
        {
          "internalType": "uint8",
          "name": "color3",
          "type": "uint8"
        },
        {
          "internalType": "uint8",
          "name": "power",
          "type": "uint8"
        },
        {
          "internalType": "uint8",
          "name": "lifepoint",
          "type": "uint8"
        },
        {
          "internalType": "uint8",
          "name": "stamina",
          "type": "uint8"
        },
        {
          "internalType": "uint8",
          "name": "speed",
          "type": "uint8"
        }
      ],
      "stateMutability": "view",
      "type": "function"
    },
    {
      "inputs": [
        {
          "internalType": "address",
          "name": "to",
          "type": "address"
        },
        {
          "internalType": "uint256",
          "name": "tokenId",
          "type": "uint256"
        }
      ],
      "name": "approve",
      "outputs": [],
      "stateMutability": "nonpayable",
      "type": "function"
    },
    {
      "inputs": [
        {
          "internalType": "address",
          "name": "owner",
          "type": "address"
        }
      ],
      "name": "balanceOf",
      "outputs": [
        {
          "internalType": "uint256",
          "name": "",
          "type": "uint256"
        }
      ],
      "stateMutability": "view",
      "type": "function"
    },
    {
      "inputs": [
        {
          "internalType": "uint256",
          "name": "tokenId",
          "type": "uint256"
        }
      ],
      "name": "getApproved",
      "outputs": [
        {
          "internalType": "address",
          "name": "",
          "type": "address"
        }
      ],
      "stateMutability": "view",
      "type": "function"
    },
    {
      "inputs": [
        {
          "internalType": "address",
          "name": "owner",
          "type": "address"
        },
        {
          "internalType": "address",
          "name": "operator",
          "type": "address"
        }
      ],
      "name": "isApprovedForAll",
      "outputs": [
        {
          "internalType": "bool",
          "name": "",
          "type": "bool"
        }
      ],
      "stateMutability": "view",
      "type": "function"
    },
    {
      "inputs": [],
      "name": "name",
      "outputs": [
        {
          "internalType": "string",
          "name": "",
          "type": "string"
        }
      ],
      "stateMutability": "view",
      "type": "function"
    },
    {
      "inputs": [
        {
          "internalType": "uint256",
          "name": "tokenId",
          "type": "uint256"
        }
      ],
      "name": "ownerOf",
      "outputs": [
        {
          "internalType": "address",
          "name": "",
          "type": "address"
        }
      ],
      "stateMutability": "view",
      "type": "function"
    },
    {
      "inputs": [
        {
          "internalType": "address",
          "name": "from",
          "type": "address"
        },
        {
          "internalType": "address",
          "name": "to",
          "type": "address"
        },
        {
          "internalType": "uint256",
          "name": "tokenId",
          "type": "uint256"
        }
      ],
      "name": "safeTransferFrom",
      "outputs": [],
      "stateMutability": "nonpayable",
      "type": "function"
    },
    {
      "inputs": [
        {
          "internalType": "address",
          "name": "from",
          "type": "address"
        },
        {
          "internalType": "address",
          "name": "to",
          "type": "address"
        },
        {
          "internalType": "uint256",
          "name": "tokenId",
          "type": "uint256"
        },
        {
          "internalType": "bytes",
          "name": "_data",
          "type": "bytes"
        }
      ],
      "name": "safeTransferFrom",
      "outputs": [],
      "stateMutability": "nonpayable",
      "type": "function"
    },
    {
      "inputs": [
        {
          "internalType": "address",
          "name": "operator",
          "type": "address"
        },
        {
          "internalType": "bool",
          "name": "approved",
          "type": "bool"
        }
      ],
      "name": "setApprovalForAll",
      "outputs": [],
      "stateMutability": "nonpayable",
      "type": "function"
    },
    {
      "inputs": [
        {
          "internalType": "bytes4",
          "name": "interfaceId",
          "type": "bytes4"
        }
      ],
      "name": "supportsInterface",
      "outputs": [
        {
          "internalType": "bool",
          "name": "",
          "type": "bool"
        }
      ],
      "stateMutability": "view",
      "type": "function"
    },
    {
      "inputs": [],
      "name": "symbol",
      "outputs": [
        {
          "internalType": "string",
          "name": "",
          "type": "string"
        }
      ],
      "stateMutability": "view",
      "type": "function"
    },
    {
      "inputs": [
        {
          "internalType": "uint256",
          "name": "tokenId",
          "type": "uint256"
        }
      ],
      "name": "tokenURI",
      "outputs": [
        {
          "internalType": "string",
          "name": "",
          "type": "string"
        }
      ],
      "stateMutability": "view",
      "type": "function"
    },
    {
      "inputs": [
        {
          "internalType": "address",
          "name": "from",
          "type": "address"
        },
        {
          "internalType": "address",
          "name": "to",
          "type": "address"
        },
        {
          "internalType": "uint256",
          "name": "tokenId",
          "type": "uint256"
        }
      ],
      "name": "transferFrom",
      "outputs": [],
      "stateMutability": "nonpayable",
      "type": "function"
    },
    {
      "inputs": [
        {
          "internalType": "address",
          "name": "to",
          "type": "address"
        },
        {
          "internalType": "uint8",
          "name": "_color1",
          "type": "uint8"
        },
        {
          "internalType": "uint8",
          "name": "_color2",
          "type": "uint8"
        },
        {
          "internalType": "uint8",
          "name": "_color3",
          "type": "uint8"
        },
        {
          "internalType": "uint8",
          "name": "_power",
          "type": "uint8"
        },
        {
          "internalType": "uint8",
          "name": "_lifepoint",
          "type": "uint8"
        },
        {
          "internalType": "uint8",
          "name": "_stamina",
          "type": "uint8"
        },
        {
          "internalType": "uint8",
          "name": "_speed",
          "type": "uint8"
        }
      ],
      "name": "mint",
      "outputs": [],
      "stateMutability": "nonpayable",
      "type": "function"
    },
    {
      "inputs": [
        {
          "internalType": "uint256",
          "name": "_tokenId",
          "type": "uint256"
        }
      ],
      "name": "wiewStat",
      "outputs": [
        {
          "components": [
            {
              "internalType": "uint8",
              "name": "color1",
              "type": "uint8"
            },
            {
              "internalType": "uint8",
              "name": "color2",
              "type": "uint8"
            },
            {
              "internalType": "uint8",
              "name": "color3",
              "type": "uint8"
            },
            {
              "internalType": "uint8",
              "name": "power",
              "type": "uint8"
            },
            {
              "internalType": "uint8",
              "name": "lifepoint",
              "type": "uint8"
            },
            {
              "internalType": "uint8",
              "name": "stamina",
              "type": "uint8"
            },
            {
              "internalType": "uint8",
              "name": "speed",
              "type": "uint8"
            }
          ],
          "internalType": "struct MyNft.Cat",
          "name": "",
          "type": "tuple"
        }
      ],
      "stateMutability": "view",
      "type": "function"
    }
  ],
  "bytecode": "0x60806040523480156200001157600080fd5b506040518060400160405280600781526020017f4e667420436174000000000000000000000000000000000000000000000000008152506040518060400160405280600381526020017f4e46430000000000000000000000000000000000000000000000000000000000815250816000908051906020019062000096929190620000b8565b508060019080519060200190620000af929190620000b8565b505050620001cd565b828054620000c69062000168565b90600052602060002090601f016020900481019282620000ea576000855562000136565b82601f106200010557805160ff191683800117855562000136565b8280016001018555821562000136579182015b828111156200013557825182559160200191906001019062000118565b5b50905062000145919062000149565b5090565b5b80821115620001645760008160009055506001016200014a565b5090565b600060028204905060018216806200018157607f821691505b602082108114156200019857620001976200019e565b5b50919050565b7f4e487b7100000000000000000000000000000000000000000000000000000000600052602260045260246000fd5b612cf380620001dd6000396000f3fe608060405234801561001057600080fd5b50600436106101005760003560e01c806395d89b4111610097578063c87b56dd11610066578063c87b56dd146102bd578063d975f66d146102ed578063e0527d1314610309578063e985e9c51461033f57610100565b806395d89b4114610237578063a22cb46514610255578063b88d4fde14610271578063c25c5c3e1461028d57610100565b806323b872dd116100d357806323b872dd1461019f57806342842e0e146101bb5780636352211e146101d757806370a082311461020757610100565b806301ffc9a71461010557806306fdde0314610135578063081812fc14610153578063095ea7b314610183575b600080fd5b61011f600480360381019061011a9190611d4c565b61036f565b60405161012c91906121c4565b60405180910390f35b61013d610451565b60405161014a91906121df565b60405180910390f35b61016d60048036038101906101689190611da6565b6104e3565b60405161017a919061215d565b60405180910390f35b61019d60048036038101906101989190611c56565b610568565b005b6101b960048036038101906101b49190611b40565b610680565b005b6101d560048036038101906101d09190611b40565b6106e0565b005b6101f160048036038101906101ec9190611da6565b610700565b6040516101fe919061215d565b60405180910390f35b610221600480360381019061021c9190611ad3565b6107b2565b60405161022e91906123dc565b60405180910390f35b61023f61086a565b60405161024c91906121df565b60405180910390f35b61026f600480360381019061026a9190611c16565b6108fc565b005b61028b60048036038101906102869190611b93565b610912565b005b6102a760048036038101906102a29190611da6565b610974565b6040516102b491906123c1565b60405180910390f35b6102d760048036038101906102d29190611da6565b610a77565b6040516102e491906121df565b60405180910390f35b61030760048036038101906103029190611c96565b610b1e565b005b610323600480360381019061031e9190611da6565b610c9b565b60405161033697969594939291906123f7565b60405180910390f35b61035960048036038101906103549190611b00565b610d44565b60405161036691906121c4565b60405180910390f35b60007f80ac58cd000000000000000000000000000000000000000000000000000000007bffffffffffffffffffffffffffffffffffffffffffffffffffffffff1916827bffffffffffffffffffffffffffffffffffffffffffffffffffffffff1916148061043a57507f5b5e139f000000000000000000000000000000000000000000000000000000007bffffffffffffffffffffffffffffffffffffffffffffffffffffffff1916827bffffffffffffffffffffffffffffffffffffffffffffffffffffffff1916145b8061044a575061044982610dd8565b5b9050919050565b6060600080546104609061267d565b80601f016020809104026020016040519081016040528092919081815260200182805461048c9061267d565b80156104d95780601f106104ae576101008083540402835291602001916104d9565b820191906000526020600020905b8154815290600101906020018083116104bc57829003601f168201915b5050505050905090565b60006104ee82610e42565b61052d576040517f08c379a000000000000000000000000000000000000000000000000000000000815260040161052490612341565b60405180910390fd5b6004600083815260200190815260200160002060009054906101000a900473ffffffffffffffffffffffffffffffffffffffff169050919050565b600061057382610700565b90508073ffffffffffffffffffffffffffffffffffffffff168373ffffffffffffffffffffffffffffffffffffffff1614156105e4576040517f08c379a00000000000000000000000000000000000000000000000000000000081526004016105db90612381565b60405180910390fd5b8073ffffffffffffffffffffffffffffffffffffffff16610603610eae565b73ffffffffffffffffffffffffffffffffffffffff16148061063257506106318161062c610eae565b610d44565b5b610671576040517f08c379a0000000000000000000000000000000000000000000000000000000008152600401610668906122c1565b60405180910390fd5b61067b8383610eb6565b505050565b61069161068b610eae565b82610f6f565b6106d0576040517f08c379a00000000000000000000000000000000000000000000000000000000081526004016106c7906123a1565b60405180910390fd5b6106db83838361104d565b505050565b6106fb83838360405180602001604052806000815250610912565b505050565b6000806002600084815260200190815260200160002060009054906101000a900473ffffffffffffffffffffffffffffffffffffffff169050600073ffffffffffffffffffffffffffffffffffffffff168173ffffffffffffffffffffffffffffffffffffffff1614156107a9576040517f08c379a00000000000000000000000000000000000000000000000000000000081526004016107a090612301565b60405180910390fd5b80915050919050565b60008073ffffffffffffffffffffffffffffffffffffffff168273ffffffffffffffffffffffffffffffffffffffff161415610823576040517f08c379a000000000000000000000000000000000000000000000000000000000815260040161081a906122e1565b60405180910390fd5b600360008373ffffffffffffffffffffffffffffffffffffffff1673ffffffffffffffffffffffffffffffffffffffff168152602001908152602001600020549050919050565b6060600180546108799061267d565b80601f01602080910402602001604051908101604052809291908181526020018280546108a59061267d565b80156108f25780601f106108c7576101008083540402835291602001916108f2565b820191906000526020600020905b8154815290600101906020018083116108d557829003601f168201915b5050505050905090565b61090e610907610eae565b83836112b4565b5050565b61092361091d610eae565b83610f6f565b610962576040517f08c379a0000000000000000000000000000000000000000000000000000000008152600401610959906123a1565b60405180910390fd5b61096e84848484611421565b50505050565b61097c611993565b600682815481106109905761098f6127e7565b5b906000526020600020016040518060e00160405290816000820160009054906101000a900460ff1660ff1660ff1681526020016000820160019054906101000a900460ff1660ff1660ff1681526020016000820160029054906101000a900460ff1660ff1660ff1681526020016000820160039054906101000a900460ff1660ff1660ff1681526020016000820160049054906101000a900460ff1660ff1660ff1681526020016000820160059054906101000a900460ff1660ff1660ff1681526020016000820160069054906101000a900460ff1660ff1660ff16815250509050919050565b6060610a8282610e42565b610ac1576040517f08c379a0000000000000000000000000000000000000000000000000000000008152600401610ab890612361565b60405180910390fd5b6000610acb61147d565b90506000815111610aeb5760405180602001604052806000815250610b16565b80610af584611494565b604051602001610b06929190612139565b6040516020818303038152906040525b915050919050565b60006040518060e001604052808960ff1681526020018860ff1681526020018760ff1681526020018660ff1681526020018560ff1681526020018460ff1681526020018360ff1681525090506006819080600181540180825580915050600190039060005260206000200160009091909190915060008201518160000160006101000a81548160ff021916908360ff16021790555060208201518160000160016101000a81548160ff021916908360ff16021790555060408201518160000160026101000a81548160ff021916908360ff16021790555060608201518160000160036101000a81548160ff021916908360ff16021790555060808201518160000160046101000a81548160ff021916908360ff16021790555060a08201518160000160056101000a81548160ff021916908360ff16021790555060c08201518160000160066101000a81548160ff021916908360ff160217905550505060006006805490509050610c8f8a826115f5565b50505050505050505050565b60068181548110610cab57600080fd5b906000526020600020016000915090508060000160009054906101000a900460ff16908060000160019054906101000a900460ff16908060000160029054906101000a900460ff16908060000160039054906101000a900460ff16908060000160049054906101000a900460ff16908060000160059054906101000a900460ff16908060000160069054906101000a900460ff16905087565b6000600560008473ffffffffffffffffffffffffffffffffffffffff1673ffffffffffffffffffffffffffffffffffffffff16815260200190815260200160002060008373ffffffffffffffffffffffffffffffffffffffff1673ffffffffffffffffffffffffffffffffffffffff16815260200190815260200160002060009054906101000a900460ff16905092915050565b60007f01ffc9a7000000000000000000000000000000000000000000000000000000007bffffffffffffffffffffffffffffffffffffffffffffffffffffffff1916827bffffffffffffffffffffffffffffffffffffffffffffffffffffffff1916149050919050565b60008073ffffffffffffffffffffffffffffffffffffffff166002600084815260200190815260200160002060009054906101000a900473ffffffffffffffffffffffffffffffffffffffff1673ffffffffffffffffffffffffffffffffffffffff1614159050919050565b600033905090565b816004600083815260200190815260200160002060006101000a81548173ffffffffffffffffffffffffffffffffffffffff021916908373ffffffffffffffffffffffffffffffffffffffff160217905550808273ffffffffffffffffffffffffffffffffffffffff16610f2983610700565b73ffffffffffffffffffffffffffffffffffffffff167f8c5be1e5ebec7d5bd14f71427d1e84f3dd0314c0f7b2291e5b200ac8c7c3b92560405160405180910390a45050565b6000610f7a82610e42565b610fb9576040517f08c379a0000000000000000000000000000000000000000000000000000000008152600401610fb0906122a1565b60405180910390fd5b6000610fc483610700565b90508073ffffffffffffffffffffffffffffffffffffffff168473ffffffffffffffffffffffffffffffffffffffff16148061103357508373ffffffffffffffffffffffffffffffffffffffff1661101b846104e3565b73ffffffffffffffffffffffffffffffffffffffff16145b8061104457506110438185610d44565b5b91505092915050565b8273ffffffffffffffffffffffffffffffffffffffff1661106d82610700565b73ffffffffffffffffffffffffffffffffffffffff16146110c3576040517f08c379a00000000000000000000000000000000000000000000000000000000081526004016110ba90612221565b60405180910390fd5b600073ffffffffffffffffffffffffffffffffffffffff168273ffffffffffffffffffffffffffffffffffffffff161415611133576040517f08c379a000000000000000000000000000000000000000000000000000000000815260040161112a90612261565b60405180910390fd5b61113e8383836117cf565b611149600082610eb6565b6001600360008573ffffffffffffffffffffffffffffffffffffffff1673ffffffffffffffffffffffffffffffffffffffff16815260200190815260200160002060008282546111999190612586565b925050819055506001600360008473ffffffffffffffffffffffffffffffffffffffff1673ffffffffffffffffffffffffffffffffffffffff16815260200190815260200160002060008282546111f091906124ff565b92505081905550816002600083815260200190815260200160002060006101000a81548173ffffffffffffffffffffffffffffffffffffffff021916908373ffffffffffffffffffffffffffffffffffffffff160217905550808273ffffffffffffffffffffffffffffffffffffffff168473ffffffffffffffffffffffffffffffffffffffff167fddf252ad1be2c89b69c2b068fc378daa952ba7f163c4a11628f55a4df523b3ef60405160405180910390a46112af8383836117d4565b505050565b8173ffffffffffffffffffffffffffffffffffffffff168373ffffffffffffffffffffffffffffffffffffffff161415611323576040517f08c379a000000000000000000000000000000000000000000000000000000000815260040161131a90612281565b60405180910390fd5b80600560008573ffffffffffffffffffffffffffffffffffffffff1673ffffffffffffffffffffffffffffffffffffffff16815260200190815260200160002060008473ffffffffffffffffffffffffffffffffffffffff1673ffffffffffffffffffffffffffffffffffffffff16815260200190815260200160002060006101000a81548160ff0219169083151502179055508173ffffffffffffffffffffffffffffffffffffffff168373ffffffffffffffffffffffffffffffffffffffff167f17307eab39ab6107e8899845ad3d59bd9653f200f220920489ca2b5937696c318360405161141491906121c4565b60405180910390a3505050565b61142c84848461104d565b611438848484846117d9565b611477576040517f08c379a000000000000000000000000000000000000000000000000000000000815260040161146e90612201565b60405180910390fd5b50505050565b606060405180602001604052806000815250905090565b606060008214156114dc576040518060400160405280600181526020017f300000000000000000000000000000000000000000000000000000000000000081525090506115f0565b600082905060005b6000821461150e5780806114f7906126e0565b915050600a826115079190612555565b91506114e4565b60008167ffffffffffffffff81111561152a57611529612816565b5b6040519080825280601f01601f19166020018201604052801561155c5781602001600182028036833780820191505090505b5090505b600085146115e9576001826115759190612586565b9150600a856115849190612729565b603061159091906124ff565b60f81b8183815181106115a6576115a56127e7565b5b60200101907effffffffffffffffffffffffffffffffffffffffffffffffffffffffffffff1916908160001a905350600a856115e29190612555565b9450611560565b8093505050505b919050565b600073ffffffffffffffffffffffffffffffffffffffff168273ffffffffffffffffffffffffffffffffffffffff161415611665576040517f08c379a000000000000000000000000000000000000000000000000000000000815260040161165c90612321565b60405180910390fd5b61166e81610e42565b156116ae576040517f08c379a00000000000000000000000000000000000000000000000000000000081526004016116a590612241565b60405180910390fd5b6116ba600083836117cf565b6001600760008473ffffffffffffffffffffffffffffffffffffffff1673ffffffffffffffffffffffffffffffffffffffff168152602001908152602001600020600082825461170a91906124ff565b92505081905550816008600083815260200190815260200160002060006101000a81548173ffffffffffffffffffffffffffffffffffffffff021916908373ffffffffffffffffffffffffffffffffffffffff160217905550808273ffffffffffffffffffffffffffffffffffffffff16600073ffffffffffffffffffffffffffffffffffffffff167fddf252ad1be2c89b69c2b068fc378daa952ba7f163c4a11628f55a4df523b3ef60405160405180910390a46117cb600083836117d4565b5050565b505050565b505050565b60006117fa8473ffffffffffffffffffffffffffffffffffffffff16611970565b15611963578373ffffffffffffffffffffffffffffffffffffffff1663150b7a02611823610eae565b8786866040518563ffffffff1660e01b81526004016118459493929190612178565b602060405180830381600087803b15801561185f57600080fd5b505af192505050801561189057506040513d601f19601f8201168201806040525081019061188d9190611d79565b60015b611913573d80600081146118c0576040519150601f19603f3d011682016040523d82523d6000602084013e6118c5565b606091505b5060008151141561190b576040517f08c379a000000000000000000000000000000000000000000000000000000000815260040161190290612201565b60405180910390fd5b805181602001fd5b63150b7a0260e01b7bffffffffffffffffffffffffffffffffffffffffffffffffffffffff1916817bffffffffffffffffffffffffffffffffffffffffffffffffffffffff191614915050611968565b600190505b949350505050565b6000808273ffffffffffffffffffffffffffffffffffffffff163b119050919050565b6040518060e00160405280600060ff168152602001600060ff168152602001600060ff168152602001600060ff168152602001600060ff168152602001600060ff168152602001600060ff1681525090565b60006119f86119f38461248b565b612466565b905082815260208101848484011115611a1457611a1361284a565b5b611a1f84828561263b565b509392505050565b600081359050611a3681612c4a565b92915050565b600081359050611a4b81612c61565b92915050565b600081359050611a6081612c78565b92915050565b600081519050611a7581612c78565b92915050565b600082601f830112611a9057611a8f612845565b5b8135611aa08482602086016119e5565b91505092915050565b600081359050611ab881612c8f565b92915050565b600081359050611acd81612ca6565b92915050565b600060208284031215611ae957611ae8612854565b5b6000611af784828501611a27565b91505092915050565b60008060408385031215611b1757611b16612854565b5b6000611b2585828601611a27565b9250506020611b3685828601611a27565b9150509250929050565b600080600060608486031215611b5957611b58612854565b5b6000611b6786828701611a27565b9350506020611b7886828701611a27565b9250506040611b8986828701611aa9565b9150509250925092565b60008060008060808587031215611bad57611bac612854565b5b6000611bbb87828801611a27565b9450506020611bcc87828801611a27565b9350506040611bdd87828801611aa9565b925050606085013567ffffffffffffffff811115611bfe57611bfd61284f565b5b611c0a87828801611a7b565b91505092959194509250565b60008060408385031215611c2d57611c2c612854565b5b6000611c3b85828601611a27565b9250506020611c4c85828601611a3c565b9150509250929050565b60008060408385031215611c6d57611c6c612854565b5b6000611c7b85828601611a27565b9250506020611c8c85828601611aa9565b9150509250929050565b600080600080600080600080610100898b031215611cb757611cb6612854565b5b6000611cc58b828c01611a27565b9850506020611cd68b828c01611abe565b9750506040611ce78b828c01611abe565b9650506060611cf88b828c01611abe565b9550506080611d098b828c01611abe565b94505060a0611d1a8b828c01611abe565b93505060c0611d2b8b828c01611abe565b92505060e0611d3c8b828c01611abe565b9150509295985092959890939650565b600060208284031215611d6257611d61612854565b5b6000611d7084828501611a51565b91505092915050565b600060208284031215611d8f57611d8e612854565b5b6000611d9d84828501611a66565b91505092915050565b600060208284031215611dbc57611dbb612854565b5b6000611dca84828501611aa9565b91505092915050565b611ddc816125ba565b82525050565b611deb816125cc565b82525050565b6000611dfc826124bc565b611e0681856124d2565b9350611e1681856020860161264a565b611e1f81612859565b840191505092915050565b6000611e35826124c7565b611e3f81856124e3565b9350611e4f81856020860161264a565b611e5881612859565b840191505092915050565b6000611e6e826124c7565b611e7881856124f4565b9350611e8881856020860161264a565b80840191505092915050565b6000611ea16032836124e3565b9150611eac8261286a565b604082019050919050565b6000611ec46025836124e3565b9150611ecf826128b9565b604082019050919050565b6000611ee7601c836124e3565b9150611ef282612908565b602082019050919050565b6000611f0a6024836124e3565b9150611f1582612931565b604082019050919050565b6000611f2d6019836124e3565b9150611f3882612980565b602082019050919050565b6000611f50602c836124e3565b9150611f5b826129a9565b604082019050919050565b6000611f736038836124e3565b9150611f7e826129f8565b604082019050919050565b6000611f96602a836124e3565b9150611fa182612a47565b604082019050919050565b6000611fb96029836124e3565b9150611fc482612a96565b604082019050919050565b6000611fdc6020836124e3565b9150611fe782612ae5565b602082019050919050565b6000611fff602c836124e3565b915061200a82612b0e565b604082019050919050565b6000612022602f836124e3565b915061202d82612b5d565b604082019050919050565b60006120456021836124e3565b915061205082612bac565b604082019050919050565b60006120686031836124e3565b915061207382612bfb565b604082019050919050565b60e082016000820151612094600085018261211b565b5060208201516120a7602085018261211b565b5060408201516120ba604085018261211b565b5060608201516120cd606085018261211b565b5060808201516120e0608085018261211b565b5060a08201516120f360a085018261211b565b5060c082015161210660c085018261211b565b50505050565b61211581612624565b82525050565b6121248161262e565b82525050565b6121338161262e565b82525050565b60006121458285611e63565b91506121518284611e63565b91508190509392505050565b60006020820190506121726000830184611dd3565b92915050565b600060808201905061218d6000830187611dd3565b61219a6020830186611dd3565b6121a7604083018561210c565b81810360608301526121b98184611df1565b905095945050505050565b60006020820190506121d96000830184611de2565b92915050565b600060208201905081810360008301526121f98184611e2a565b905092915050565b6000602082019050818103600083015261221a81611e94565b9050919050565b6000602082019050818103600083015261223a81611eb7565b9050919050565b6000602082019050818103600083015261225a81611eda565b9050919050565b6000602082019050818103600083015261227a81611efd565b9050919050565b6000602082019050818103600083015261229a81611f20565b9050919050565b600060208201905081810360008301526122ba81611f43565b9050919050565b600060208201905081810360008301526122da81611f66565b9050919050565b600060208201905081810360008301526122fa81611f89565b9050919050565b6000602082019050818103600083015261231a81611fac565b9050919050565b6000602082019050818103600083015261233a81611fcf565b9050919050565b6000602082019050818103600083015261235a81611ff2565b9050919050565b6000602082019050818103600083015261237a81612015565b9050919050565b6000602082019050818103600083015261239a81612038565b9050919050565b600060208201905081810360008301526123ba8161205b565b9050919050565b600060e0820190506123d6600083018461207e565b92915050565b60006020820190506123f1600083018461210c565b92915050565b600060e08201905061240c600083018a61212a565b612419602083018961212a565b612426604083018861212a565b612433606083018761212a565b612440608083018661212a565b61244d60a083018561212a565b61245a60c083018461212a565b98975050505050505050565b6000612470612481565b905061247c82826126af565b919050565b6000604051905090565b600067ffffffffffffffff8211156124a6576124a5612816565b5b6124af82612859565b9050602081019050919050565b600081519050919050565b600081519050919050565b600082825260208201905092915050565b600082825260208201905092915050565b600081905092915050565b600061250a82612624565b915061251583612624565b9250827fffffffffffffffffffffffffffffffffffffffffffffffffffffffffffffffff0382111561254a5761254961275a565b5b828201905092915050565b600061256082612624565b915061256b83612624565b92508261257b5761257a612789565b5b828204905092915050565b600061259182612624565b915061259c83612624565b9250828210156125af576125ae61275a565b5b828203905092915050565b60006125c582612604565b9050919050565b60008115159050919050565b60007fffffffff0000000000000000000000000000000000000000000000000000000082169050919050565b600073ffffffffffffffffffffffffffffffffffffffff82169050919050565b6000819050919050565b600060ff82169050919050565b82818337600083830152505050565b60005b8381101561266857808201518184015260208101905061264d565b83811115612677576000848401525b50505050565b6000600282049050600182168061269557607f821691505b602082108114156126a9576126a86127b8565b5b50919050565b6126b882612859565b810181811067ffffffffffffffff821117156126d7576126d6612816565b5b80604052505050565b60006126eb82612624565b91507fffffffffffffffffffffffffffffffffffffffffffffffffffffffffffffffff82141561271e5761271d61275a565b5b600182019050919050565b600061273482612624565b915061273f83612624565b92508261274f5761274e612789565b5b828206905092915050565b7f4e487b7100000000000000000000000000000000000000000000000000000000600052601160045260246000fd5b7f4e487b7100000000000000000000000000000000000000000000000000000000600052601260045260246000fd5b7f4e487b7100000000000000000000000000000000000000000000000000000000600052602260045260246000fd5b7f4e487b7100000000000000000000000000000000000000000000000000000000600052603260045260246000fd5b7f4e487b7100000000000000000000000000000000000000000000000000000000600052604160045260246000fd5b600080fd5b600080fd5b600080fd5b600080fd5b6000601f19601f8301169050919050565b7f4552433732313a207472616e7366657220746f206e6f6e20455243373231526560008201527f63656976657220696d706c656d656e7465720000000000000000000000000000602082015250565b7f4552433732313a207472616e736665722066726f6d20696e636f72726563742060008201527f6f776e6572000000000000000000000000000000000000000000000000000000602082015250565b7f4552433732313a20746f6b656e20616c7265616479206d696e74656400000000600082015250565b7f4552433732313a207472616e7366657220746f20746865207a65726f2061646460008201527f7265737300000000000000000000000000000000000000000000000000000000602082015250565b7f4552433732313a20617070726f766520746f2063616c6c657200000000000000600082015250565b7f4552433732313a206f70657261746f7220717565727920666f72206e6f6e657860008201527f697374656e7420746f6b656e0000000000000000000000000000000000000000602082015250565b7f4552433732313a20617070726f76652063616c6c6572206973206e6f74206f7760008201527f6e6572206e6f7220617070726f76656420666f7220616c6c0000000000000000602082015250565b7f4552433732313a2062616c616e636520717565727920666f7220746865207a6560008201527f726f206164647265737300000000000000000000000000000000000000000000602082015250565b7f4552433732313a206f776e657220717565727920666f72206e6f6e657869737460008201527f656e7420746f6b656e0000000000000000000000000000000000000000000000602082015250565b7f4552433732313a206d696e7420746f20746865207a65726f2061646472657373600082015250565b7f4552433732313a20617070726f76656420717565727920666f72206e6f6e657860008201527f697374656e7420746f6b656e0000000000000000000000000000000000000000602082015250565b7f4552433732314d657461646174613a2055524920717565727920666f72206e6f60008201527f6e6578697374656e7420746f6b656e0000000000000000000000000000000000602082015250565b7f4552433732313a20617070726f76616c20746f2063757272656e74206f776e6560008201527f7200000000000000000000000000000000000000000000000000000000000000602082015250565b7f4552433732313a207472616e736665722063616c6c6572206973206e6f74206f60008201527f776e6572206e6f7220617070726f766564000000000000000000000000000000602082015250565b612c53816125ba565b8114612c5e57600080fd5b50565b612c6a816125cc565b8114612c7557600080fd5b50565b612c81816125d8565b8114612c8c57600080fd5b50565b612c9881612624565b8114612ca357600080fd5b50565b612caf8161262e565b8114612cba57600080fd5b5056fea2646970667358221220945e55548ee3e2185d505c305da70bd6e06c589b6d035534b8014e7a0d2a99d564736f6c63430008070033",
  "immutableReferences": {},
  "source": "// SPDX-License-Identifier: Leluk911\npragma solidity 0.8.7;\n\nimport \"../node_modules/@openzeppelin/contracts/token/ERC721/ERC721.sol\";\nimport \"../node_modules/@openzeppelin/contracts/token/ERC721/IERC721.sol\";\n\ncontract MyNft is ERC721 {\n    constructor() ERC721(\"Nft Cat\", \"NFC\") {}\n\n    struct Cat {\n        uint8 color1;\n        uint8 color2;\n        uint8 color3;\n        uint8 power;\n        uint8 lifepoint;\n        uint8 stamina;\n        uint8 speed;\n    }\n    Cat[] public Cats;\n\n    mapping(address => uint256) private _balances;\n\n    mapping(uint256 => address) private _owners;\n\n    function mint(\n        address to,\n        uint8 _color1,\n        uint8 _color2,\n        uint8 _color3,\n        uint8 _power,\n        uint8 _lifepoint,\n        uint8 _stamina,\n        uint8 _speed\n    ) external virtual {\n        Cat memory NewCat = Cat(\n            _color1,\n            _color2,\n            _color3,\n            _power,\n            _lifepoint,\n            _stamina,\n            _speed\n        );\n        Cats.push(NewCat);\n        uint256 _tokenId = Cats.length;\n        _mint(to, _tokenId);\n    }\n\n    function _mint(address to, uint256 tokenId) internal virtual override {\n        require(to != address(0), \"ERC721: mint to the zero address\");\n        require(!_exists(tokenId), \"ERC721: token already minted\");\n\n        _beforeTokenTransfer(address(0), to, tokenId);\n\n        _balances[to] += 1;\n        _owners[tokenId] = to;\n\n        emit Transfer(address(0), to, tokenId);\n\n        _afterTokenTransfer(address(0), to, tokenId);\n    }\n\n    function wiewStat(uint256 _tokenId)\n        public\n        view\n        virtual\n        returns (Cat memory)\n    {\n        return Cats[_tokenId];\n    }\n}\n",
  "sourcePath": "/Users/lucianodinoia/Desktop/moralis Academy/Build an NFT Marketplace/marketPlace/contracts/MyNft.sol",
  "compiler": {
    "name": "solc",
    "version": "0.8.7+commit.e28d00a7.Emscripten.clang"
  },
  "schemaVersion": "3.4.6",
  "updatedAt": "2022-04-17T06:32:25.964Z",
  "devdoc": {
    "kind": "dev",
    "methods": {
      "approve(address,uint256)": {
        "details": "See {IERC721-approve}."
      },
      "balanceOf(address)": {
        "details": "See {IERC721-balanceOf}."
      },
      "getApproved(uint256)": {
        "details": "See {IERC721-getApproved}."
      },
      "isApprovedForAll(address,address)": {
        "details": "See {IERC721-isApprovedForAll}."
      },
      "name()": {
        "details": "See {IERC721Metadata-name}."
      },
      "ownerOf(uint256)": {
        "details": "See {IERC721-ownerOf}."
      },
      "safeTransferFrom(address,address,uint256)": {
        "details": "See {IERC721-safeTransferFrom}."
      },
      "safeTransferFrom(address,address,uint256,bytes)": {
        "details": "See {IERC721-safeTransferFrom}."
      },
      "setApprovalForAll(address,bool)": {
        "details": "See {IERC721-setApprovalForAll}."
      },
      "supportsInterface(bytes4)": {
        "details": "See {IERC165-supportsInterface}."
      },
      "symbol()": {
        "details": "See {IERC721Metadata-symbol}."
      },
      "tokenURI(uint256)": {
        "details": "See {IERC721Metadata-tokenURI}."
      },
      "transferFrom(address,address,uint256)": {
        "details": "See {IERC721-transferFrom}."
      }
    },
    "version": 1
  },
  "userdoc": {
    "kind": "user",
    "methods": {},
    "version": 1
  }
}